{
  "_format": "hh-sol-artifact-1",
  "contractName": "BEP20SmartContract",
  "sourceName": "src/contracts/BEP20SmartContract.sol",
  "abi": [
    {
      "inputs": [
        {
          "internalType": "string",
          "name": "name_",
          "type": "string"
        },
        {
          "internalType": "string",
          "name": "symbol_",
          "type": "string"
        },
        {
          "internalType": "uint8",
          "name": "decimals_",
          "type": "uint8"
        },
        {
          "internalType": "uint256",
          "name": "cap_",
          "type": "uint256"
        },
        {
          "internalType": "uint256",
          "name": "initialBalance_",
          "type": "uint256"
        },
        {
          "internalType": "address payable",
          "name": "txnFeeReceiver_",
          "type": "address"
        },
        {
          "internalType": "address payable",
          "name": "brnFeeReceiver_",
          "type": "address"
        }
      ],
      "stateMutability": "payable",
      "type": "constructor"
    },
    {
      "anonymous": false,
      "inputs": [
        {
          "indexed": true,
          "internalType": "address",
          "name": "owner",
          "type": "address"
        },
        {
          "indexed": true,
          "internalType": "address",
          "name": "spender",
          "type": "address"
        },
        {
          "indexed": false,
          "internalType": "uint256",
          "name": "value",
          "type": "uint256"
        }
      ],
      "name": "Approval",
      "type": "event"
    },
    {
      "anonymous": false,
      "inputs": [],
      "name": "MintFinished",
      "type": "event"
    },
    {
      "anonymous": false,
      "inputs": [
        {
          "indexed": true,
          "internalType": "address",
          "name": "previousOwner",
          "type": "address"
        },
        {
          "indexed": true,
          "internalType": "address",
          "name": "newOwner",
          "type": "address"
        }
      ],
      "name": "OwnershipTransferred",
      "type": "event"
    },
    {
      "anonymous": false,
      "inputs": [],
      "name": "Pause",
      "type": "event"
    },
    {
      "anonymous": false,
      "inputs": [
        {
          "indexed": false,
          "internalType": "uint256",
          "name": "value",
          "type": "uint256"
        }
      ],
      "name": "Rewards",
      "type": "event"
    },
    {
      "anonymous": false,
      "inputs": [
        {
          "indexed": true,
          "internalType": "address",
          "name": "from",
          "type": "address"
        },
        {
          "indexed": true,
          "internalType": "address",
          "name": "to",
          "type": "address"
        },
        {
          "indexed": false,
          "internalType": "uint256",
          "name": "value",
          "type": "uint256"
        }
      ],
      "name": "Transfer",
      "type": "event"
    },
    {
      "anonymous": false,
      "inputs": [],
      "name": "Unpause",
      "type": "event"
    },
    {
      "inputs": [],
      "name": "BANK_FEE_ADDRESS",
      "outputs": [
        {
          "internalType": "address",
          "name": "",
          "type": "address"
        }
      ],
      "stateMutability": "view",
      "type": "function"
    },
    {
      "inputs": [],
      "name": "DaoChairPerson",
      "outputs": [
        {
          "internalType": "address",
          "name": "",
          "type": "address"
        }
      ],
      "stateMutability": "view",
      "type": "function"
    },
    {
      "inputs": [],
      "name": "_bankDeposit",
      "outputs": [
        {
          "internalType": "uint256",
          "name": "",
          "type": "uint256"
        }
      ],
      "stateMutability": "payable",
      "type": "function"
    },
    {
      "inputs": [
        {
          "internalType": "uint256",
          "name": "amount",
          "type": "uint256"
        }
      ],
      "name": "_bankWithdraw",
      "outputs": [
        {
          "internalType": "uint256",
          "name": "",
          "type": "uint256"
        }
      ],
      "stateMutability": "nonpayable",
      "type": "function"
    },
    {
      "inputs": [
        {
          "internalType": "uint256",
          "name": "fee",
          "type": "uint256"
        }
      ],
      "name": "_setBankFee",
      "outputs": [
        {
          "internalType": "uint256",
          "name": "",
          "type": "uint256"
        }
      ],
      "stateMutability": "nonpayable",
      "type": "function"
    },
    {
      "inputs": [
        {
          "internalType": "address",
          "name": "bankAddress",
          "type": "address"
        }
      ],
      "name": "_setBankFeeAddress",
      "outputs": [
        {
          "internalType": "address",
          "name": "",
          "type": "address"
        }
      ],
      "stateMutability": "nonpayable",
      "type": "function"
    },
    {
      "inputs": [],
      "name": "_winningDaoProposal",
      "outputs": [
        {
          "internalType": "uint256",
          "name": "",
          "type": "uint256"
        }
      ],
      "stateMutability": "view",
      "type": "function"
    },
    {
      "inputs": [
        {
          "internalType": "address",
          "name": "owner",
          "type": "address"
        },
        {
          "internalType": "address",
          "name": "spender",
          "type": "address"
        }
      ],
      "name": "allowance",
      "outputs": [
        {
          "internalType": "uint256",
          "name": "",
          "type": "uint256"
        }
      ],
      "stateMutability": "view",
      "type": "function"
    },
    {
      "inputs": [
        {
          "internalType": "address",
          "name": "spender",
          "type": "address"
        },
        {
          "internalType": "uint256",
          "name": "amount",
          "type": "uint256"
        }
      ],
      "name": "approve",
      "outputs": [
        {
          "internalType": "bool",
          "name": "",
          "type": "bool"
        }
      ],
      "stateMutability": "nonpayable",
      "type": "function"
    },
    {
      "inputs": [
        {
          "internalType": "address",
          "name": "spender",
          "type": "address"
        },
        {
          "internalType": "uint256",
          "name": "amount",
          "type": "uint256"
        }
      ],
      "name": "approveAndCall",
      "outputs": [
        {
          "internalType": "bool",
          "name": "",
          "type": "bool"
        }
      ],
      "stateMutability": "nonpayable",
      "type": "function"
    },
    {
      "inputs": [
        {
          "internalType": "address",
          "name": "spender",
          "type": "address"
        },
        {
          "internalType": "uint256",
          "name": "amount",
          "type": "uint256"
        },
        {
          "internalType": "bytes",
          "name": "data",
          "type": "bytes"
        }
      ],
      "name": "approveAndCall",
      "outputs": [
        {
          "internalType": "bool",
          "name": "",
          "type": "bool"
        }
      ],
      "stateMutability": "nonpayable",
      "type": "function"
    },
    {
      "inputs": [
        {
          "internalType": "address",
          "name": "account",
          "type": "address"
        }
      ],
      "name": "balanceOf",
      "outputs": [
        {
          "internalType": "uint256",
          "name": "",
          "type": "uint256"
        }
      ],
      "stateMutability": "view",
      "type": "function"
    },
    {
      "inputs": [],
      "name": "bankDeposit",
      "outputs": [
        {
          "internalType": "uint256",
          "name": "",
          "type": "uint256"
        }
      ],
      "stateMutability": "payable",
      "type": "function"
    },
    {
      "inputs": [
        {
          "internalType": "uint256",
          "name": "amount",
          "type": "uint256"
        }
      ],
      "name": "bankWithdraw",
      "outputs": [
        {
          "internalType": "uint256",
          "name": "",
          "type": "uint256"
        }
      ],
      "stateMutability": "nonpayable",
      "type": "function"
    },
    {
      "inputs": [
        {
          "internalType": "uint256",
          "name": "amount",
          "type": "uint256"
        }
      ],
      "name": "burn",
      "outputs": [],
      "stateMutability": "nonpayable",
      "type": "function"
    },
    {
      "inputs": [
        {
          "internalType": "address",
          "name": "account",
          "type": "address"
        },
        {
          "internalType": "uint256",
          "name": "amount",
          "type": "uint256"
        }
      ],
      "name": "burnFrom",
      "outputs": [],
      "stateMutability": "nonpayable",
      "type": "function"
    },
    {
      "inputs": [
        {
          "internalType": "uint256",
          "name": "amount",
          "type": "uint256"
        }
      ],
      "name": "calculateBankFee",
      "outputs": [
        {
          "internalType": "uint256",
          "name": "",
          "type": "uint256"
        },
        {
          "internalType": "uint256",
          "name": "",
          "type": "uint256"
        }
      ],
      "stateMutability": "view",
      "type": "function"
    },
    {
      "inputs": [],
      "name": "cap",
      "outputs": [
        {
          "internalType": "uint256",
          "name": "",
          "type": "uint256"
        }
      ],
      "stateMutability": "view",
      "type": "function"
    },
    {
      "inputs": [
        {
          "internalType": "uint256",
          "name": "proposal",
          "type": "uint256"
        }
      ],
      "name": "castYourVote",
      "outputs": [],
      "stateMutability": "nonpayable",
      "type": "function"
    },
    {
      "inputs": [],
      "name": "decimals",
      "outputs": [
        {
          "internalType": "uint8",
          "name": "",
          "type": "uint8"
        }
      ],
      "stateMutability": "view",
      "type": "function"
    },
    {
      "inputs": [
        {
          "internalType": "address",
          "name": "spender",
          "type": "address"
        },
        {
          "internalType": "uint256",
          "name": "subtractedValue",
          "type": "uint256"
        }
      ],
      "name": "decreaseAllowance",
      "outputs": [
        {
          "internalType": "bool",
          "name": "",
          "type": "bool"
        }
      ],
      "stateMutability": "nonpayable",
      "type": "function"
    },
    {
      "inputs": [
        {
          "internalType": "address",
          "name": "to",
          "type": "address"
        }
      ],
      "name": "delegateYourVote",
      "outputs": [],
      "stateMutability": "nonpayable",
      "type": "function"
    },
    {
      "inputs": [],
      "name": "finishMinting",
      "outputs": [],
      "stateMutability": "nonpayable",
      "type": "function"
    },
    {
      "inputs": [],
      "name": "getBalance",
      "outputs": [
        {
          "internalType": "uint256",
          "name": "",
          "type": "uint256"
        }
      ],
      "stateMutability": "view",
      "type": "function"
    },
    {
      "inputs": [],
      "name": "getBrnFeeReceiverAddress",
      "outputs": [
        {
          "internalType": "address",
          "name": "",
          "type": "address"
        }
      ],
      "stateMutability": "view",
      "type": "function"
    },
    {
      "inputs": [],
      "name": "getOwner",
      "outputs": [
        {
          "internalType": "address",
          "name": "",
          "type": "address"
        }
      ],
      "stateMutability": "view",
      "type": "function"
    },
    {
      "inputs": [],
      "name": "getTxnFeeReceiverAddress",
      "outputs": [
        {
          "internalType": "address",
          "name": "",
          "type": "address"
        }
      ],
      "stateMutability": "view",
      "type": "function"
    },
    {
      "inputs": [
        {
          "internalType": "address",
          "name": "voter",
          "type": "address"
        }
      ],
      "name": "giveRightToVote",
      "outputs": [],
      "stateMutability": "nonpayable",
      "type": "function"
    },
    {
      "inputs": [
        {
          "internalType": "address",
          "name": "spender",
          "type": "address"
        },
        {
          "internalType": "uint256",
          "name": "addedValue",
          "type": "uint256"
        }
      ],
      "name": "increaseAllowance",
      "outputs": [
        {
          "internalType": "bool",
          "name": "",
          "type": "bool"
        }
      ],
      "stateMutability": "nonpayable",
      "type": "function"
    },
    {
      "inputs": [
        {
          "internalType": "address",
          "name": "account",
          "type": "address"
        },
        {
          "internalType": "uint256",
          "name": "amount",
          "type": "uint256"
        }
      ],
      "name": "mint",
      "outputs": [],
      "stateMutability": "nonpayable",
      "type": "function"
    },
    {
      "inputs": [],
      "name": "mintingFinished",
      "outputs": [
        {
          "internalType": "bool",
          "name": "",
          "type": "bool"
        }
      ],
      "stateMutability": "view",
      "type": "function"
    },
    {
      "inputs": [],
      "name": "name",
      "outputs": [
        {
          "internalType": "string",
          "name": "",
          "type": "string"
        }
      ],
      "stateMutability": "view",
      "type": "function"
    },
    {
      "inputs": [],
      "name": "owner",
      "outputs": [
        {
          "internalType": "address",
          "name": "",
          "type": "address"
        }
      ],
      "stateMutability": "view",
      "type": "function"
    },
    {
      "inputs": [],
      "name": "pause",
      "outputs": [],
      "stateMutability": "nonpayable",
      "type": "function"
    },
    {
      "inputs": [
        {
          "internalType": "uint256",
          "name": "",
          "type": "uint256"
        }
      ],
      "name": "proposals",
      "outputs": [
        {
          "internalType": "bytes32",
          "name": "name",
          "type": "bytes32"
        },
        {
          "internalType": "uint256",
          "name": "voteCount",
          "type": "uint256"
        }
      ],
      "stateMutability": "view",
      "type": "function"
    },
    {
      "inputs": [
        {
          "internalType": "address",
          "name": "tokenAddress",
          "type": "address"
        },
        {
          "internalType": "uint256",
          "name": "tokenAmount",
          "type": "uint256"
        }
      ],
      "name": "recoverBEP20",
      "outputs": [],
      "stateMutability": "nonpayable",
      "type": "function"
    },
    {
      "inputs": [],
      "name": "renounceOwnership",
      "outputs": [],
      "stateMutability": "nonpayable",
      "type": "function"
    },
    {
      "inputs": [
        {
          "internalType": "bytes32[]",
          "name": "proposalNames",
          "type": "bytes32[]"
        }
      ],
      "name": "setProposalNames",
      "outputs": [],
      "stateMutability": "nonpayable",
      "type": "function"
    },
    {
      "inputs": [
        {
          "internalType": "bytes4",
          "name": "interfaceId",
          "type": "bytes4"
        }
      ],
      "name": "supportsInterface",
      "outputs": [
        {
          "internalType": "bool",
          "name": "",
          "type": "bool"
        }
      ],
      "stateMutability": "view",
      "type": "function"
    },
    {
      "inputs": [],
      "name": "symbol",
      "outputs": [
        {
          "internalType": "string",
          "name": "",
          "type": "string"
        }
      ],
      "stateMutability": "view",
      "type": "function"
    },
    {
      "inputs": [],
      "name": "totalSupply",
      "outputs": [
        {
          "internalType": "uint256",
          "name": "",
          "type": "uint256"
        }
      ],
      "stateMutability": "view",
      "type": "function"
    },
    {
      "inputs": [],
      "name": "transactions",
      "outputs": [
        {
          "internalType": "uint256",
          "name": "",
          "type": "uint256"
        }
      ],
      "stateMutability": "view",
      "type": "function"
    },
    {
      "inputs": [
        {
          "internalType": "address",
          "name": "recipient",
          "type": "address"
        },
        {
          "internalType": "uint256",
          "name": "amount",
          "type": "uint256"
        }
      ],
      "name": "transfer",
      "outputs": [
        {
          "internalType": "bool",
          "name": "",
          "type": "bool"
        }
      ],
      "stateMutability": "nonpayable",
      "type": "function"
    },
    {
      "inputs": [
        {
          "internalType": "address",
          "name": "recipient",
          "type": "address"
        },
        {
          "internalType": "uint256",
          "name": "amount",
          "type": "uint256"
        }
      ],
      "name": "transferAndCall",
      "outputs": [
        {
          "internalType": "bool",
          "name": "",
          "type": "bool"
        }
      ],
      "stateMutability": "nonpayable",
      "type": "function"
    },
    {
      "inputs": [
        {
          "internalType": "address",
          "name": "recipient",
          "type": "address"
        },
        {
          "internalType": "uint256",
          "name": "amount",
          "type": "uint256"
        },
        {
          "internalType": "bytes",
          "name": "data",
          "type": "bytes"
        }
      ],
      "name": "transferAndCall",
      "outputs": [
        {
          "internalType": "bool",
          "name": "",
          "type": "bool"
        }
      ],
      "stateMutability": "nonpayable",
      "type": "function"
    },
    {
      "inputs": [
        {
          "internalType": "address",
          "name": "sender",
          "type": "address"
        },
        {
          "internalType": "address",
          "name": "recipient",
          "type": "address"
        },
        {
          "internalType": "uint256",
          "name": "amount",
          "type": "uint256"
        }
      ],
      "name": "transferFrom",
      "outputs": [
        {
          "internalType": "bool",
          "name": "",
          "type": "bool"
        }
      ],
      "stateMutability": "nonpayable",
      "type": "function"
    },
    {
      "inputs": [
        {
          "internalType": "address",
          "name": "sender",
          "type": "address"
        },
        {
          "internalType": "address",
          "name": "recipient",
          "type": "address"
        },
        {
          "internalType": "uint256",
          "name": "amount",
          "type": "uint256"
        },
        {
          "internalType": "bytes",
          "name": "data",
          "type": "bytes"
        }
      ],
      "name": "transferFromAndCall",
      "outputs": [
        {
          "internalType": "bool",
          "name": "",
          "type": "bool"
        }
      ],
      "stateMutability": "nonpayable",
      "type": "function"
    },
    {
      "inputs": [
        {
          "internalType": "address",
          "name": "sender",
          "type": "address"
        },
        {
          "internalType": "address",
          "name": "recipient",
          "type": "address"
        },
        {
          "internalType": "uint256",
          "name": "amount",
          "type": "uint256"
        }
      ],
      "name": "transferFromAndCall",
      "outputs": [
        {
          "internalType": "bool",
          "name": "",
          "type": "bool"
        }
      ],
      "stateMutability": "nonpayable",
      "type": "function"
    },
    {
      "inputs": [
        {
          "internalType": "address",
          "name": "newOwner",
          "type": "address"
        }
      ],
      "name": "transferOwnership",
      "outputs": [],
      "stateMutability": "nonpayable",
      "type": "function"
    },
    {
      "inputs": [],
      "name": "unpause",
      "outputs": [],
      "stateMutability": "nonpayable",
      "type": "function"
    },
    {
      "inputs": [
        {
          "internalType": "address",
          "name": "",
          "type": "address"
        }
      ],
      "name": "voters",
      "outputs": [
        {
          "internalType": "uint256",
          "name": "weight",
          "type": "uint256"
        },
        {
          "internalType": "bool",
          "name": "voted",
          "type": "bool"
        },
        {
          "internalType": "address",
          "name": "delegate",
          "type": "address"
        },
        {
          "internalType": "uint256",
          "name": "vote",
          "type": "uint256"
        }
      ],
      "stateMutability": "view",
      "type": "function"
    },
    {
      "inputs": [],
      "name": "winnerName",
      "outputs": [
        {
          "internalType": "bytes32",
          "name": "winnerName_",
          "type": "bytes32"
        }
      ],
      "stateMutability": "view",
      "type": "function"
    },
    {
      "inputs": [],
      "name": "winningDaoProposal",
      "outputs": [
        {
          "internalType": "uint256",
          "name": "",
          "type": "uint256"
        }
      ],
      "stateMutability": "view",
      "type": "function"
    }
  ],
  "bytecode": "0x60806040526000600860006101000a81548160ff0219169083151502179055506000600860016101000a81548160ff0219169083151502179055506000600d556040516200661738038062006617833981810160405281019062000064919062000a8d565b8082858760ff168a8a6200008d620000816200039a60201b60201c565b620003a260201b60201c565b8160049080519060200190620000a592919062000762565b508060059080519060200190620000be92919062000762565b5050506000821162000107576040517f08c379a0000000000000000000000000000000000000000000000000000000008152600401620000fe9062000bdf565b60405180910390fd5b80600a62000116919062000d84565b8262000123919062000dd5565b6007819055505050600073ffffffffffffffffffffffffffffffffffffffff168173ffffffffffffffffffffffffffffffffffffffff1614156200019e576040517f08c379a0000000000000000000000000000000000000000000000000000000008152600401620001959062000eac565b60405180910390fd5b80600860026101000a81548173ffffffffffffffffffffffffffffffffffffffff021916908373ffffffffffffffffffffffffffffffffffffffff16021790555050600073ffffffffffffffffffffffffffffffffffffffff168173ffffffffffffffffffffffffffffffffffffffff16141562000253576040517f08c379a00000000000000000000000000000000000000000000000000000000081526004016200024a9062000f44565b60405180910390fd5b80600960006101000a81548173ffffffffffffffffffffffffffffffffffffffff021916908373ffffffffffffffffffffffffffffffffffffffff1602179055505033600e60006101000a81548173ffffffffffffffffffffffffffffffffffffffff021916908373ffffffffffffffffffffffffffffffffffffffff1602179055506001600f6000600e60009054906101000a900473ffffffffffffffffffffffffffffffffffffffff1673ffffffffffffffffffffffffffffffffffffffff1673ffffffffffffffffffffffffffffffffffffffff1681526020019081526020016000206000018190555062000351856200046660201b60201c565b6200038d620003656200039a60201b60201c565b86600a62000374919062000f66565b8562000381919062000dd5565b6200048460201b60201c565b50505050505050620011fd565b600033905090565b60008060009054906101000a900473ffffffffffffffffffffffffffffffffffffffff169050816000806101000a81548173ffffffffffffffffffffffffffffffffffffffff021916908373ffffffffffffffffffffffffffffffffffffffff1602179055508173ffffffffffffffffffffffffffffffffffffffff168173ffffffffffffffffffffffffffffffffffffffff167f8be0079c531659141344cd1fd0a4f28419497f9722a3daafe3b4186f6b6457e060405160405180910390a35050565b80600660006101000a81548160ff021916908360ff16021790555050565b620004946200039a60201b60201c565b73ffffffffffffffffffffffffffffffffffffffff16620004ba6200052e60201b60201c565b73ffffffffffffffffffffffffffffffffffffffff161462000513576040517f08c379a00000000000000000000000000000000000000000000000000000000081526004016200050a9062001007565b60405180910390fd5b6200052a82826200055760201b62001e001760201c565b5050565b60008060009054906101000a900473ffffffffffffffffffffffffffffffffffffffff16905090565b62000567620005e360201b60201c565b8162000578620005ed60201b60201c565b62000584919062001029565b1115620005c8576040517f08c379a0000000000000000000000000000000000000000000000000000000008152600401620005bf90620010d6565b60405180910390fd5b620005df8282620005f760201b62001e6a1760201c565b5050565b6000600754905090565b6000600354905090565b600073ffffffffffffffffffffffffffffffffffffffff168273ffffffffffffffffffffffffffffffffffffffff1614156200066a576040517f08c379a0000000000000000000000000000000000000000000000000000000008152600401620006619062001148565b60405180910390fd5b6200067e600083836200075d60201b60201c565b806003600082825462000692919062001029565b9250508190555080600160008473ffffffffffffffffffffffffffffffffffffffff1673ffffffffffffffffffffffffffffffffffffffff1681526020019081526020016000206000828254620006ea919062001029565b925050819055508173ffffffffffffffffffffffffffffffffffffffff16600073ffffffffffffffffffffffffffffffffffffffff167fddf252ad1be2c89b69c2b068fc378daa952ba7f163c4a11628f55a4df523b3ef836040516200075191906200117b565b60405180910390a35050565b505050565b8280546200077090620011c7565b90600052602060002090601f016020900481019282620007945760008555620007e0565b82601f10620007af57805160ff1916838001178555620007e0565b82800160010185558215620007e0579182015b82811115620007df578251825591602001919060010190620007c2565b5b509050620007ef9190620007f3565b5090565b5b808211156200080e576000816000905550600101620007f4565b5090565b6000604051905090565b600080fd5b600080fd5b600080fd5b600080fd5b6000601f19601f8301169050919050565b7f4e487b7100000000000000000000000000000000000000000000000000000000600052604160045260246000fd5b6200087b8262000830565b810181811067ffffffffffffffff821117156200089d576200089c62000841565b5b80604052505050565b6000620008b262000812565b9050620008c0828262000870565b919050565b600067ffffffffffffffff821115620008e357620008e262000841565b5b620008ee8262000830565b9050602081019050919050565b60005b838110156200091b578082015181840152602081019050620008fe565b838111156200092b576000848401525b50505050565b6000620009486200094284620008c5565b620008a6565b9050828152602081018484840111156200096757620009666200082b565b5b62000974848285620008fb565b509392505050565b600082601f83011262000994576200099362000826565b5b8151620009a684826020860162000931565b91505092915050565b600060ff82169050919050565b620009c781620009af565b8114620009d357600080fd5b50565b600081519050620009e781620009bc565b92915050565b6000819050919050565b62000a0281620009ed565b811462000a0e57600080fd5b50565b60008151905062000a2281620009f7565b92915050565b600073ffffffffffffffffffffffffffffffffffffffff82169050919050565b600062000a558262000a28565b9050919050565b62000a678162000a48565b811462000a7357600080fd5b50565b60008151905062000a878162000a5c565b92915050565b600080600080600080600060e0888a03121562000aaf5762000aae6200081c565b5b600088015167ffffffffffffffff81111562000ad05762000acf62000821565b5b62000ade8a828b016200097c565b975050602088015167ffffffffffffffff81111562000b025762000b0162000821565b5b62000b108a828b016200097c565b965050604062000b238a828b01620009d6565b955050606062000b368a828b0162000a11565b945050608062000b498a828b0162000a11565b93505060a062000b5c8a828b0162000a76565b92505060c062000b6f8a828b0162000a76565b91505092959891949750929550565b600082825260208201905092915050565b7f42455032304361707065643a2063617020697320300000000000000000000000600082015250565b600062000bc760158362000b7e565b915062000bd48262000b8f565b602082019050919050565b6000602082019050818103600083015262000bfa8162000bb8565b9050919050565b7f4e487b7100000000000000000000000000000000000000000000000000000000600052601160045260246000fd5b60008160011c9050919050565b6000808291508390505b600185111562000c8f5780860481111562000c675762000c6662000c01565b5b600185161562000c775780820291505b808102905062000c878562000c30565b945062000c47565b94509492505050565b60008262000caa576001905062000d7d565b8162000cba576000905062000d7d565b816001811462000cd3576002811462000cde5762000d14565b600191505062000d7d565b60ff84111562000cf35762000cf262000c01565b5b8360020a91508482111562000d0d5762000d0c62000c01565b5b5062000d7d565b5060208310610133831016604e8410600b841016171562000d4e5782820a90508381111562000d485762000d4762000c01565b5b62000d7d565b62000d5d848484600162000c3d565b9250905081840481111562000d775762000d7662000c01565b5b81810290505b9392505050565b600062000d9182620009ed565b915062000d9e83620009ed565b925062000dcd7fffffffffffffffffffffffffffffffffffffffffffffffffffffffffffffffff848462000c98565b905092915050565b600062000de282620009ed565b915062000def83620009ed565b9250817fffffffffffffffffffffffffffffffffffffffffffffffffffffffffffffffff048311821515161562000e2b5762000e2a62000c01565b5b828202905092915050565b7f424550323054786e4665655265636569766572416464726573733a2074786e4660008201527f6565526563656976657241646472657373206973203000000000000000000000602082015250565b600062000e9460368362000b7e565b915062000ea18262000e36565b604082019050919050565b6000602082019050818103600083015262000ec78162000e85565b9050919050565b7f424550323042726e4665655265636569766572416464726573733a2062726e4660008201527f6565526563656976657241646472657373206973203000000000000000000000602082015250565b600062000f2c60368362000b7e565b915062000f398262000ece565b604082019050919050565b6000602082019050818103600083015262000f5f8162000f1d565b9050919050565b600062000f7382620009ed565b915062000f8083620009af565b925062000faf7fffffffffffffffffffffffffffffffffffffffffffffffffffffffffffffffff848462000c98565b905092915050565b7f4f776e61626c653a2063616c6c6572206973206e6f7420746865206f776e6572600082015250565b600062000fef60208362000b7e565b915062000ffc8262000fb7565b602082019050919050565b60006020820190508181036000830152620010228162000fe0565b9050919050565b60006200103682620009ed565b91506200104383620009ed565b9250827fffffffffffffffffffffffffffffffffffffffffffffffffffffffffffffffff038211156200107b576200107a62000c01565b5b828201905092915050565b7f42455032304361707065643a2063617020657863656564656400000000000000600082015250565b6000620010be60198362000b7e565b9150620010cb8262001086565b602082019050919050565b60006020820190508181036000830152620010f181620010af565b9050919050565b7f42455032303a206d696e7420746f20746865207a65726f206164647265737300600082015250565b600062001130601f8362000b7e565b91506200113d82620010f8565b602082019050919050565b60006020820190508181036000830152620011638162001121565b9050919050565b6200117581620009ed565b82525050565b60006020820190506200119260008301846200116a565b92915050565b7f4e487b7100000000000000000000000000000000000000000000000000000000600052602260045260246000fd5b60006002820490506001821680620011e057607f821691505b60208210811415620011f757620011f662001198565b5b50919050565b61540a806200120d6000396000f3fe60806040526004361061031a5760003560e01c80638456cb59116101ab578063a3ec138d116100f7578063cae9ca5111610095578063e2b6799c1161006f578063e2b6799c14610c61578063e2ba53f014610c8c578063efa0880614610cb7578063f2fde38b14610ce05761031a565b8063cae9ca5114610baa578063d8fbe99414610be7578063dd62ed3e14610c245761031a565b8063afc1355d116100d1578063afc1355d14610adc578063b2d3007214610b19578063b566751814610b42578063c1d34b8914610b6d5761031a565b8063a3ec138d14610a22578063a457c2d714610a62578063a9059cbb14610a9f5761031a565b806395eee01c116101645780639a72661e1161013e5780639a72661e146109685780639e7b8d61146109a5578063a21c8b9a146109ce578063a364b5c1146109f95761031a565b806395eee01c146108e2578063986e5099146109005780639880c0701461093d5761031a565b80638456cb5914610801578063893d20e8146108185780638b18ce48146108435780638da5cb5b1461086e5780638dbd5fed1461089957806395d89b41146108b75761031a565b8063395093511161026a578063644b412111610223578063769b08cf116101fd578063769b08cf1461076d57806379cc6790146107965780637a8a44c5146107bf5780637d64bcb4146107ea5761031a565b8063644b4121146106dc57806370a0823114610719578063715018a6146107565761031a565b806339509351146105bb5780633f4ba83a146105f85780634000aea01461060f57806340c10f191461064c57806342966c6814610675578063632997371461069e5761031a565b80631296ee62116102d757806323b872dd116102b157806323b872dd146104eb578063313ce567146105285780633177029f14610553578063355274ea146105905761031a565b80631296ee6214610458578063180151911461049557806318160ddd146104c05761031a565b8063013cf08b1461031f57806301ffc9a71461035d57806305d2035b1461039a57806306fdde03146103c5578063095ea7b3146103f057806312065fe01461042d575b600080fd5b34801561032b57600080fd5b5061034660048036038101906103419190613a66565b610d09565b604051610354929190613abb565b60405180910390f35b34801561036957600080fd5b50610384600480360381019061037f9190613b3c565b610d3d565b6040516103919190613b84565b60405180910390f35b3480156103a657600080fd5b506103af610db7565b6040516103bc9190613b84565b60405180910390f35b3480156103d157600080fd5b506103da610dce565b6040516103e79190613c38565b60405180910390f35b3480156103fc57600080fd5b5061041760048036038101906104129190613cb8565b610e60565b6040516104249190613b84565b60405180910390f35b34801561043957600080fd5b50610442610e74565b60405161044f9190613cf8565b60405180910390f35b34801561046457600080fd5b5061047f600480360381019061047a9190613cb8565b610ebb565b60405161048c9190613b84565b60405180910390f35b3480156104a157600080fd5b506104aa610edf565b6040516104b79190613cf8565b60405180910390f35b3480156104cc57600080fd5b506104d5610ee5565b6040516104e29190613cf8565b60405180910390f35b3480156104f757600080fd5b50610512600480360381019061050d9190613d13565b610eef565b60405161051f9190613b84565b60405180910390f35b34801561053457600080fd5b5061053d610f05565b60405161054a9190613d82565b60405180910390f35b34801561055f57600080fd5b5061057a60048036038101906105759190613cb8565b610f1c565b6040516105879190613b84565b60405180910390f35b34801561059c57600080fd5b506105a5610f40565b6040516105b29190613cf8565b60405180910390f35b3480156105c757600080fd5b506105e260048036038101906105dd9190613cb8565b610f4a565b6040516105ef9190613b84565b60405180910390f35b34801561060457600080fd5b5061060d610f5e565b005b34801561061b57600080fd5b5061063660048036038101906106319190613ed2565b611072565b6040516106439190613b84565b60405180910390f35b34801561065857600080fd5b50610673600480360381019061066e9190613cb8565b6110dc565b005b34801561068157600080fd5b5061069c60048036038101906106979190613a66565b61113a565b005b3480156106aa57600080fd5b506106c560048036038101906106c09190613a66565b61114e565b6040516106d3929190613f41565b60405180910390f35b3480156106e857600080fd5b5061070360048036038101906106fe9190613a66565b611180565b6040516107109190613cf8565b60405180910390f35b34801561072557600080fd5b50610740600480360381019061073b9190613f6a565b611193565b60405161074d9190613cf8565b60405180910390f35b34801561076257600080fd5b5061076b6111dc565b005b34801561077957600080fd5b50610794600480360381019061078f9190613a66565b611264565b005b3480156107a257600080fd5b506107bd60048036038101906107b89190613cb8565b611270565b005b3480156107cb57600080fd5b506107d46112f4565b6040516107e19190613fa6565b60405180910390f35b3480156107f657600080fd5b506107ff61131e565b005b34801561080d57600080fd5b50610816611378565b005b34801561082457600080fd5b5061082d61148d565b60405161083a9190613fa6565b60405180910390f35b34801561084f57600080fd5b5061085861149c565b6040516108659190613fa6565b60405180910390f35b34801561087a57600080fd5b506108836114c2565b6040516108909190613fa6565b60405180910390f35b6108a16114eb565b6040516108ae9190613cf8565b60405180910390f35b3480156108c357600080fd5b506108cc6114fa565b6040516108d99190613c38565b60405180910390f35b6108ea61158c565b6040516108f79190613cf8565b60405180910390f35b34801561090c57600080fd5b5061092760048036038101906109229190613a66565b611641565b6040516109349190613cf8565b60405180910390f35b34801561094957600080fd5b5061095261185c565b60405161095f9190613fa6565b60405180910390f35b34801561097457600080fd5b5061098f600480360381019061098a9190613f6a565b611882565b60405161099c9190613fa6565b60405180910390f35b3480156109b157600080fd5b506109cc60048036038101906109c79190613f6a565b6118ef565b005b3480156109da57600080fd5b506109e36118fb565b6040516109f09190613cf8565b60405180910390f35b348015610a0557600080fd5b50610a206004803603810190610a1b91906140b5565b61190a565b005b348015610a2e57600080fd5b50610a496004803603810190610a449190613f6a565b611916565b604051610a5994939291906140fe565b60405180910390f35b348015610a6e57600080fd5b50610a896004803603810190610a849190613cb8565b611973565b604051610a969190613b84565b60405180910390f35b348015610aab57600080fd5b50610ac66004803603810190610ac19190613cb8565b611987565b604051610ad39190613b84565b60405180910390f35b348015610ae857600080fd5b50610b036004803603810190610afe9190613a66565b61199b565b604051610b109190613cf8565b60405180910390f35b348015610b2557600080fd5b50610b406004803603810190610b3b9190613f6a565b6119ad565b005b348015610b4e57600080fd5b50610b576119b9565b604051610b649190613fa6565b60405180910390f35b348015610b7957600080fd5b50610b946004803603810190610b8f9190614143565b6119e3565b604051610ba19190613b84565b60405180910390f35b348015610bb657600080fd5b50610bd16004803603810190610bcc9190613ed2565b611a48565b604051610bde9190613b84565b60405180910390f35b348015610bf357600080fd5b50610c0e6004803603810190610c099190613d13565b611aaa565b604051610c1b9190613b84565b60405180910390f35b348015610c3057600080fd5b50610c4b6004803603810190610c4691906141c6565b611ad0565b604051610c589190613cf8565b60405180910390f35b348015610c6d57600080fd5b50610c76611b57565b604051610c839190613cf8565b60405180910390f35b348015610c9857600080fd5b50610ca1611be4565b604051610cae9190614206565b60405180910390f35b348015610cc357600080fd5b50610cde6004803603810190610cd99190613cb8565b611bf3565b005b348015610cec57600080fd5b50610d076004803603810190610d029190613f6a565b611d08565b005b60108181548110610d1957600080fd5b90600052602060002090600202016000915090508060000154908060010154905082565b60007fb0202a11000000000000000000000000000000000000000000000000000000007bffffffffffffffffffffffffffffffffffffffffffffffffffffffff1916827bffffffffffffffffffffffffffffffffffffffffffffffffffffffff19161480610db05750610daf82611fbf565b5b9050919050565b6000600860009054906101000a900460ff16905090565b606060048054610ddd90614250565b80601f0160208091040260200160405190810160405280929190818152602001828054610e0990614250565b8015610e565780601f10610e2b57610100808354040283529160200191610e56565b820191906000526020600020905b815481529060010190602001808311610e3957829003601f168201915b5050505050905090565b6000610e6c8383612029565b905092915050565b6000600b60003373ffffffffffffffffffffffffffffffffffffffff1673ffffffffffffffffffffffffffffffffffffffff16815260200190815260200160002054905090565b6000610ed7838360405180602001604052806000815250611072565b905092915050565b600a5481565b6000600354905090565b6000610efc84848461208d565b90509392505050565b6000600660009054906101000a900460ff16905090565b6000610f38838360405180602001604052806000815250611a48565b905092915050565b6000600754905090565b6000610f5683836120f3565b905092915050565b610f66612157565b73ffffffffffffffffffffffffffffffffffffffff16610f846114c2565b73ffffffffffffffffffffffffffffffffffffffff1614610fda576040517f08c379a0000000000000000000000000000000000000000000000000000000008152600401610fd1906142ce565b60405180910390fd5b600860019054906101000a900460ff16611029576040517f08c379a00000000000000000000000000000000000000000000000000000000081526004016110209061433a565b60405180910390fd5b6000600860016101000a81548160ff0219169083151502179055507f7805862f689e2f13df9f062ff482ad3ad112aca9e0847911ed832e158c525b3360405160405180910390a1565b600061107e8484611987565b5061109261108a612157565b85858561215f565b6110d1576040517f08c379a00000000000000000000000000000000000000000000000000000000081526004016110c8906143cc565b60405180910390fd5b600190509392505050565b600860009054906101000a900460ff161561112c576040517f08c379a00000000000000000000000000000000000000000000000000000000081526004016111239061445e565b60405180910390fd5b611136828261227d565b5050565b61114b611145612157565b82612307565b50565b6000806000600d548461116191906144ad565b9050600081856111719190614507565b90508082935093505050915091565b600081600d81905550600d549050919050565b6000600160008373ffffffffffffffffffffffffffffffffffffffff1673ffffffffffffffffffffffffffffffffffffffff168152602001908152602001600020549050919050565b6111e4612157565b73ffffffffffffffffffffffffffffffffffffffff166112026114c2565b73ffffffffffffffffffffffffffffffffffffffff1614611258576040517f08c379a000000000000000000000000000000000000000000000000000000000815260040161124f906142ce565b60405180910390fd5b61126260006124dd565b565b61126d816125a1565b50565b60006112838361127e612157565b611ad0565b9050818110156112c8576040517f08c379a00000000000000000000000000000000000000000000000000000000081526004016112bf906145ad565b60405180910390fd5b6112e5836112d4612157565b84846112e09190614507565b6126e8565b6112ef8383612307565b505050565b6000600860029054906101000a900473ffffffffffffffffffffffffffffffffffffffff16905090565b600860009054906101000a900460ff161561136e576040517f08c379a00000000000000000000000000000000000000000000000000000000081526004016113659061445e565b60405180910390fd5b6113766128b3565b565b611380612157565b73ffffffffffffffffffffffffffffffffffffffff1661139e6114c2565b73ffffffffffffffffffffffffffffffffffffffff16146113f4576040517f08c379a00000000000000000000000000000000000000000000000000000000081526004016113eb906142ce565b60405180910390fd5b600860019054906101000a900460ff1615611444576040517f08c379a000000000000000000000000000000000000000000000000000000000815260040161143b90614619565b60405180910390fd5b6001600860016101000a81548160ff0219169083151502179055507f6985a02210a168e66602d3235cb6db0e70f92b3ba4d376a33c0f3d9434bff62560405160405180910390a1565b60006114976114c2565b905090565b600e60009054906101000a900473ffffffffffffffffffffffffffffffffffffffff1681565b60008060009054906101000a900473ffffffffffffffffffffffffffffffffffffffff16905090565b60006114f561158c565b905090565b60606005805461150990614250565b80601f016020809104026020016040519081016040528092919081815260200182805461153590614250565b80156115825780601f1061155757610100808354040283529160200191611582565b820191906000526020600020905b81548152906001019060200180831161156557829003601f168201915b5050505050905090565b600034600b60003373ffffffffffffffffffffffffffffffffffffffff1673ffffffffffffffffffffffffffffffffffffffff16815260200190815260200160002060008282546115dd9190614639565b92505081905550600a60008154809291906115f79061468f565b9190505550600b60003373ffffffffffffffffffffffffffffffffffffffff1673ffffffffffffffffffffffffffffffffffffffff16815260200190815260200160002054905090565b600081600b60003373ffffffffffffffffffffffffffffffffffffffff1673ffffffffffffffffffffffffffffffffffffffff16815260200190815260200160002054101561168f57600080fd5b60008061169b8461114e565b9150915081600b60003373ffffffffffffffffffffffffffffffffffffffff1673ffffffffffffffffffffffffffffffffffffffff16815260200190815260200160002060008282546116ee9190614507565b9250508190555080600b60003373ffffffffffffffffffffffffffffffffffffffff1673ffffffffffffffffffffffffffffffffffffffff16815260200190815260200160002060008282546117449190614507565b925050819055503373ffffffffffffffffffffffffffffffffffffffff166108fc839081150290604051600060405180830381858888f19350505050158015611791573d6000803e3d6000fd5b50600c60009054906101000a900473ffffffffffffffffffffffffffffffffffffffff1673ffffffffffffffffffffffffffffffffffffffff166108fc829081150290604051600060405180830381858888f193505050501580156117fa573d6000803e3d6000fd5b50600a600081548092919061180e9061468f565b9190505550600b60003373ffffffffffffffffffffffffffffffffffffffff1673ffffffffffffffffffffffffffffffffffffffff1681526020019081526020016000205492505050919050565b600c60009054906101000a900473ffffffffffffffffffffffffffffffffffffffff1681565b600081600c60006101000a81548173ffffffffffffffffffffffffffffffffffffffff021916908373ffffffffffffffffffffffffffffffffffffffff160217905550600c60009054906101000a900473ffffffffffffffffffffffffffffffffffffffff169050919050565b6118f881612939565b50565b6000611905611b57565b905090565b61191381612af3565b50565b600f6020528060005260406000206000915090508060000154908060010160009054906101000a900460ff16908060010160019054906101000a900473ffffffffffffffffffffffffffffffffffffffff16908060020154905084565b600061197f8383612b87565b905092915050565b60006119938383612beb565b905092915050565b60006119a682611641565b9050919050565b6119b681612c4f565b50565b6000600960009054906101000a900473ffffffffffffffffffffffffffffffffffffffff16905090565b60006119f0858585610eef565b506119fd8585858561215f565b611a3c576040517f08c379a0000000000000000000000000000000000000000000000000000000008152600401611a33906143cc565b60405180910390fd5b60019050949350505050565b6000611a548484610e60565b50611a60848484612feb565b611a9f576040517f08c379a0000000000000000000000000000000000000000000000000000000008152600401611a969061474a565b60405180910390fd5b600190509392505050565b6000611ac7848484604051806020016040528060008152506119e3565b90509392505050565b6000600260008473ffffffffffffffffffffffffffffffffffffffff1673ffffffffffffffffffffffffffffffffffffffff16815260200190815260200160002060008373ffffffffffffffffffffffffffffffffffffffff1673ffffffffffffffffffffffffffffffffffffffff16815260200190815260200160002054905092915050565b600080600090506000805b601080549050811015611bdb578160108281548110611b8457611b8361476a565b5b9060005260206000209060020201600101541115611bc85760108181548110611bb057611baf61476a565b5b90600052602060002090600202016001015491508092505b8080611bd39061468f565b915050611b62565b50819250505090565b6000611bee613106565b905090565b611bfb612157565b73ffffffffffffffffffffffffffffffffffffffff16611c196114c2565b73ffffffffffffffffffffffffffffffffffffffff1614611c6f576040517f08c379a0000000000000000000000000000000000000000000000000000000008152600401611c66906142ce565b60405180910390fd5b8173ffffffffffffffffffffffffffffffffffffffff1663a9059cbb611c936114c2565b836040518363ffffffff1660e01b8152600401611cb1929190614799565b602060405180830381600087803b158015611ccb57600080fd5b505af1158015611cdf573d6000803e3d6000fd5b505050506040513d601f19601f82011682018060405250810190611d0391906147ee565b505050565b611d10612157565b73ffffffffffffffffffffffffffffffffffffffff16611d2e6114c2565b73ffffffffffffffffffffffffffffffffffffffff1614611d84576040517f08c379a0000000000000000000000000000000000000000000000000000000008152600401611d7b906142ce565b60405180910390fd5b600073ffffffffffffffffffffffffffffffffffffffff168173ffffffffffffffffffffffffffffffffffffffff161415611df4576040517f08c379a0000000000000000000000000000000000000000000000000000000008152600401611deb9061488d565b60405180910390fd5b611dfd816124dd565b50565b611e08610f40565b81611e11610ee5565b611e1b9190614639565b1115611e5c576040517f08c379a0000000000000000000000000000000000000000000000000000000008152600401611e53906148f9565b60405180910390fd5b611e668282611e6a565b5050565b600073ffffffffffffffffffffffffffffffffffffffff168273ffffffffffffffffffffffffffffffffffffffff161415611eda576040517f08c379a0000000000000000000000000000000000000000000000000000000008152600401611ed190614965565b60405180910390fd5b611ee66000838361313a565b8060036000828254611ef89190614639565b9250508190555080600160008473ffffffffffffffffffffffffffffffffffffffff1673ffffffffffffffffffffffffffffffffffffffff1681526020019081526020016000206000828254611f4e9190614639565b925050819055508173ffffffffffffffffffffffffffffffffffffffff16600073ffffffffffffffffffffffffffffffffffffffff167fddf252ad1be2c89b69c2b068fc378daa952ba7f163c4a11628f55a4df523b3ef83604051611fb39190613cf8565b60405180910390a35050565b60007f01ffc9a7000000000000000000000000000000000000000000000000000000007bffffffffffffffffffffffffffffffffffffffffffffffffffffffff1916827bffffffffffffffffffffffffffffffffffffffffffffffffffffffff1916149050919050565b6000600860019054906101000a900460ff161561207b576040517f08c379a000000000000000000000000000000000000000000000000000000000815260040161207290614619565b60405180910390fd5b612085838361313f565b905092915050565b6000600860019054906101000a900460ff16156120df576040517f08c379a00000000000000000000000000000000000000000000000000000000081526004016120d690614619565b60405180910390fd5b6120ea84848461315d565b90509392505050565b6000600860019054906101000a900460ff1615612145576040517f08c379a000000000000000000000000000000000000000000000000000000000815260040161213c90614619565b60405180910390fd5b61214f838361325e565b905092915050565b600033905090565b60006121808473ffffffffffffffffffffffffffffffffffffffff1661330a565b61218d5760009050612275565b60008473ffffffffffffffffffffffffffffffffffffffff166388a7ca5c6121b3612157565b8887876040518563ffffffff1660e01b81526004016121d594939291906149da565b602060405180830381600087803b1580156121ef57600080fd5b505af1158015612203573d6000803e3d6000fd5b505050506040513d601f19601f820116820180604052508101906122279190614a3b565b90506388a7ca5c60e01b7bffffffffffffffffffffffffffffffffffffffffffffffffffffffff1916817bffffffffffffffffffffffffffffffffffffffffffffffffffffffff1916149150505b949350505050565b612285612157565b73ffffffffffffffffffffffffffffffffffffffff166122a36114c2565b73ffffffffffffffffffffffffffffffffffffffff16146122f9576040517f08c379a00000000000000000000000000000000000000000000000000000000081526004016122f0906142ce565b60405180910390fd5b6123038282611e00565b5050565b600073ffffffffffffffffffffffffffffffffffffffff168273ffffffffffffffffffffffffffffffffffffffff161415612377576040517f08c379a000000000000000000000000000000000000000000000000000000000815260040161236e90614ada565b60405180910390fd5b6123838260008361313a565b6000600160008473ffffffffffffffffffffffffffffffffffffffff1673ffffffffffffffffffffffffffffffffffffffff1681526020019081526020016000205490508181101561240a576040517f08c379a000000000000000000000000000000000000000000000000000000000815260040161240190614b6c565b60405180910390fd5b81816124169190614507565b600160008573ffffffffffffffffffffffffffffffffffffffff1673ffffffffffffffffffffffffffffffffffffffff16815260200190815260200160002081905550816003600082825461246b9190614507565b92505081905550600073ffffffffffffffffffffffffffffffffffffffff168373ffffffffffffffffffffffffffffffffffffffff167fddf252ad1be2c89b69c2b068fc378daa952ba7f163c4a11628f55a4df523b3ef846040516124d09190613cf8565b60405180910390a3505050565b60008060009054906101000a900473ffffffffffffffffffffffffffffffffffffffff169050816000806101000a81548173ffffffffffffffffffffffffffffffffffffffff021916908373ffffffffffffffffffffffffffffffffffffffff1602179055508173ffffffffffffffffffffffffffffffffffffffff168173ffffffffffffffffffffffffffffffffffffffff167f8be0079c531659141344cd1fd0a4f28419497f9722a3daafe3b4186f6b6457e060405160405180910390a35050565b6000600f60003373ffffffffffffffffffffffffffffffffffffffff1673ffffffffffffffffffffffffffffffffffffffff168152602001908152602001600020905060008160000154141561262c576040517f08c379a000000000000000000000000000000000000000000000000000000000815260040161262390614bd8565b60405180910390fd5b8060010160009054906101000a900460ff161561267e576040517f08c379a000000000000000000000000000000000000000000000000000000000815260040161267590614c44565b60405180910390fd5b60018160010160006101000a81548160ff0219169083151502179055508181600201819055508060000154601083815481106126bd576126bc61476a565b5b906000526020600020906002020160010160008282546126dd9190614639565b925050819055505050565b600073ffffffffffffffffffffffffffffffffffffffff168373ffffffffffffffffffffffffffffffffffffffff161415612758576040517f08c379a000000000000000000000000000000000000000000000000000000000815260040161274f90614cd6565b60405180910390fd5b600073ffffffffffffffffffffffffffffffffffffffff168273ffffffffffffffffffffffffffffffffffffffff1614156127c8576040517f08c379a00000000000000000000000000000000000000000000000000000000081526004016127bf90614d68565b60405180910390fd5b80600260008573ffffffffffffffffffffffffffffffffffffffff1673ffffffffffffffffffffffffffffffffffffffff16815260200190815260200160002060008473ffffffffffffffffffffffffffffffffffffffff1673ffffffffffffffffffffffffffffffffffffffff168152602001908152602001600020819055508173ffffffffffffffffffffffffffffffffffffffff168373ffffffffffffffffffffffffffffffffffffffff167f8c5be1e5ebec7d5bd14f71427d1e84f3dd0314c0f7b2291e5b200ac8c7c3b925836040516128a69190613cf8565b60405180910390a3505050565b6128bb612157565b73ffffffffffffffffffffffffffffffffffffffff166128d96114c2565b73ffffffffffffffffffffffffffffffffffffffff161461292f576040517f08c379a0000000000000000000000000000000000000000000000000000000008152600401612926906142ce565b60405180910390fd5b61293761331d565b565b600e60009054906101000a900473ffffffffffffffffffffffffffffffffffffffff1673ffffffffffffffffffffffffffffffffffffffff163373ffffffffffffffffffffffffffffffffffffffff16146129c9576040517f08c379a00000000000000000000000000000000000000000000000000000000081526004016129c090614dfa565b60405180910390fd5b600f60008273ffffffffffffffffffffffffffffffffffffffff1673ffffffffffffffffffffffffffffffffffffffff16815260200190815260200160002060010160009054906101000a900460ff1615612a59576040517f08c379a0000000000000000000000000000000000000000000000000000000008152600401612a5090614e66565b60405180910390fd5b6000600f60008373ffffffffffffffffffffffffffffffffffffffff1673ffffffffffffffffffffffffffffffffffffffff1681526020019081526020016000206000015414612aa857600080fd5b6001600f60008373ffffffffffffffffffffffffffffffffffffffff1673ffffffffffffffffffffffffffffffffffffffff1681526020019081526020016000206000018190555050565b60005b8151811015612b835760106040518060400160405280848481518110612b1f57612b1e61476a565b5b6020026020010151815260200160008152509080600181540180825580915050600190039060005260206000209060020201600090919091909150600082015181600001556020820151816001015550508080612b7b9061468f565b915050612af6565b5050565b6000600860019054906101000a900460ff1615612bd9576040517f08c379a0000000000000000000000000000000000000000000000000000000008152600401612bd090614619565b60405180910390fd5b612be38383613366565b905092915050565b6000600860019054906101000a900460ff1615612c3d576040517f08c379a0000000000000000000000000000000000000000000000000000000008152600401612c3490614619565b60405180910390fd5b612c47838361345a565b905092915050565b6000600f60003373ffffffffffffffffffffffffffffffffffffffff1673ffffffffffffffffffffffffffffffffffffffff16815260200190815260200160002090508060010160009054906101000a900460ff1615612ce4576040517f08c379a0000000000000000000000000000000000000000000000000000000008152600401612cdb90614ed2565b60405180910390fd5b3373ffffffffffffffffffffffffffffffffffffffff168273ffffffffffffffffffffffffffffffffffffffff161415612d53576040517f08c379a0000000000000000000000000000000000000000000000000000000008152600401612d4a90614f3e565b60405180910390fd5b5b600073ffffffffffffffffffffffffffffffffffffffff16600f60008473ffffffffffffffffffffffffffffffffffffffff1673ffffffffffffffffffffffffffffffffffffffff16815260200190815260200160002060010160019054906101000a900473ffffffffffffffffffffffffffffffffffffffff1673ffffffffffffffffffffffffffffffffffffffff1614612ec357600f60008373ffffffffffffffffffffffffffffffffffffffff1673ffffffffffffffffffffffffffffffffffffffff16815260200190815260200160002060010160019054906101000a900473ffffffffffffffffffffffffffffffffffffffff1691503373ffffffffffffffffffffffffffffffffffffffff168273ffffffffffffffffffffffffffffffffffffffff161415612ebe576040517f08c379a0000000000000000000000000000000000000000000000000000000008152600401612eb590614faa565b60405180910390fd5b612d54565b60018160010160006101000a81548160ff021916908315150217905550818160010160016101000a81548173ffffffffffffffffffffffffffffffffffffffff021916908373ffffffffffffffffffffffffffffffffffffffff1602179055506000600f60008473ffffffffffffffffffffffffffffffffffffffff1673ffffffffffffffffffffffffffffffffffffffff16815260200190815260200160002090508060010160009054906101000a900460ff1615612fc65781600001546010826002015481548110612f9a57612f9961476a565b5b90600052602060002090600202016001016000828254612fba9190614639565b92505081905550612fe6565b8160000154816000016000828254612fde9190614639565b925050819055505b505050565b600061300c8473ffffffffffffffffffffffffffffffffffffffff1661330a565b61301957600090506130ff565b60008473ffffffffffffffffffffffffffffffffffffffff16637b04a2d061303f612157565b86866040518463ffffffff1660e01b815260040161305f93929190614fca565b602060405180830381600087803b15801561307957600080fd5b505af115801561308d573d6000803e3d6000fd5b505050506040513d601f19601f820116820180604052508101906130b19190614a3b565b9050637b04a2d060e01b7bffffffffffffffffffffffffffffffffffffffffffffffffffffffff1916817bffffffffffffffffffffffffffffffffffffffffffffffffffffffff1916149150505b9392505050565b60006010613112611b57565b815481106131235761312261476a565b5b906000526020600020906002020160000154905090565b505050565b600061315361314c612157565b84846126e8565b6001905092915050565b600061316a848484613478565b6000600260008673ffffffffffffffffffffffffffffffffffffffff1673ffffffffffffffffffffffffffffffffffffffff16815260200190815260200160002060006131b5612157565b73ffffffffffffffffffffffffffffffffffffffff1673ffffffffffffffffffffffffffffffffffffffff16815260200190815260200160002054905082811015613235576040517f08c379a000000000000000000000000000000000000000000000000000000000815260040161322c9061507a565b60405180910390fd5b61325285613241612157565b858461324d9190614507565b6126e8565b60019150509392505050565b600061330061326b612157565b848460026000613279612157565b73ffffffffffffffffffffffffffffffffffffffff1673ffffffffffffffffffffffffffffffffffffffff16815260200190815260200160002060008873ffffffffffffffffffffffffffffffffffffffff1673ffffffffffffffffffffffffffffffffffffffff168152602001908152602001600020546132fb9190614639565b6126e8565b6001905092915050565b600080823b905060008111915050919050565b6001600860006101000a81548160ff0219169083151502179055507fae5184fba832cb2b1f702aca6117b8d265eaf03ad33eb133f19dde0f5920fa0860405160405180910390a1565b60008060026000613375612157565b73ffffffffffffffffffffffffffffffffffffffff1673ffffffffffffffffffffffffffffffffffffffff16815260200190815260200160002060008573ffffffffffffffffffffffffffffffffffffffff1673ffffffffffffffffffffffffffffffffffffffff16815260200190815260200160002054905082811015613432576040517f08c379a00000000000000000000000000000000000000000000000000000000081526004016134299061510c565b60405180910390fd5b61344f61343d612157565b85858461344a9190614507565b6126e8565b600191505092915050565b600061346e613467612157565b8484613478565b6001905092915050565b613483838383613488565b505050565b600073ffffffffffffffffffffffffffffffffffffffff168373ffffffffffffffffffffffffffffffffffffffff1614156134f8576040517f08c379a00000000000000000000000000000000000000000000000000000000081526004016134ef9061519e565b60405180910390fd5b600073ffffffffffffffffffffffffffffffffffffffff168273ffffffffffffffffffffffffffffffffffffffff161415613568576040517f08c379a000000000000000000000000000000000000000000000000000000000815260040161355f90615230565b60405180910390fd5b61357383838361313a565b6000600160008573ffffffffffffffffffffffffffffffffffffffff1673ffffffffffffffffffffffffffffffffffffffff168152602001908152602001600020549050818110156135fa576040517f08c379a00000000000000000000000000000000000000000000000000000000081526004016135f1906152c2565b60405180910390fd5b61360d828261397390919063ffffffff16565b600160008673ffffffffffffffffffffffffffffffffffffffff1673ffffffffffffffffffffffffffffffffffffffff16815260200190815260200160002081905550600061365a6112f4565b905060006136666119b9565b90506000620186a060048661367b91906144ad565b6136859190615311565b90506000620186a060058761369a91906144ad565b6136a49190615311565b90506000620186a0876136b79190615311565b905060006136e0826136d2858761398990919063ffffffff16565b61398990919063ffffffff16565b90506136f5818961397390919063ffffffff16565b5087600160008b73ffffffffffffffffffffffffffffffffffffffff1673ffffffffffffffffffffffffffffffffffffffff16815260200190815260200160002060008282546137459190614639565b9250508190555083600160008773ffffffffffffffffffffffffffffffffffffffff1673ffffffffffffffffffffffffffffffffffffffff168152602001908152602001600020600082825461379b9190614639565b9250508190555081600160008873ffffffffffffffffffffffffffffffffffffffff1673ffffffffffffffffffffffffffffffffffffffff16815260200190815260200160002060008282546137f19190614639565b925050819055506138018361399f565b8873ffffffffffffffffffffffffffffffffffffffff168a73ffffffffffffffffffffffffffffffffffffffff167fddf252ad1be2c89b69c2b068fc378daa952ba7f163c4a11628f55a4df523b3ef8a60405161385e9190613cf8565b60405180910390a38473ffffffffffffffffffffffffffffffffffffffff168a73ffffffffffffffffffffffffffffffffffffffff167fddf252ad1be2c89b69c2b068fc378daa952ba7f163c4a11628f55a4df523b3ef866040516138c39190613cf8565b60405180910390a38573ffffffffffffffffffffffffffffffffffffffff168a73ffffffffffffffffffffffffffffffffffffffff167fddf252ad1be2c89b69c2b068fc378daa952ba7f163c4a11628f55a4df523b3ef846040516139289190613cf8565b60405180910390a37ff8738c258eacbb175b764334c95a51c4e5efc89acca8058bb23d95de4f1c09ee8360405161395f9190613cf8565b60405180910390a150505050505050505050565b600081836139819190614507565b905092915050565b600081836139979190614639565b905092915050565b600081116139e2576040517f08c379a00000000000000000000000000000000000000000000000000000000081526004016139d9906153b4565b60405180910390fd5b7ff8738c258eacbb175b764334c95a51c4e5efc89acca8058bb23d95de4f1c09ee81604051613a119190613cf8565b60405180910390a150565b6000604051905090565b600080fd5b600080fd5b6000819050919050565b613a4381613a30565b8114613a4e57600080fd5b50565b600081359050613a6081613a3a565b92915050565b600060208284031215613a7c57613a7b613a26565b5b6000613a8a84828501613a51565b91505092915050565b6000819050919050565b613aa681613a93565b82525050565b613ab581613a30565b82525050565b6000604082019050613ad06000830185613a9d565b613add6020830184613aac565b9392505050565b60007fffffffff0000000000000000000000000000000000000000000000000000000082169050919050565b613b1981613ae4565b8114613b2457600080fd5b50565b600081359050613b3681613b10565b92915050565b600060208284031215613b5257613b51613a26565b5b6000613b6084828501613b27565b91505092915050565b60008115159050919050565b613b7e81613b69565b82525050565b6000602082019050613b996000830184613b75565b92915050565b600081519050919050565b600082825260208201905092915050565b60005b83811015613bd9578082015181840152602081019050613bbe565b83811115613be8576000848401525b50505050565b6000601f19601f8301169050919050565b6000613c0a82613b9f565b613c148185613baa565b9350613c24818560208601613bbb565b613c2d81613bee565b840191505092915050565b60006020820190508181036000830152613c528184613bff565b905092915050565b600073ffffffffffffffffffffffffffffffffffffffff82169050919050565b6000613c8582613c5a565b9050919050565b613c9581613c7a565b8114613ca057600080fd5b50565b600081359050613cb281613c8c565b92915050565b60008060408385031215613ccf57613cce613a26565b5b6000613cdd85828601613ca3565b9250506020613cee85828601613a51565b9150509250929050565b6000602082019050613d0d6000830184613aac565b92915050565b600080600060608486031215613d2c57613d2b613a26565b5b6000613d3a86828701613ca3565b9350506020613d4b86828701613ca3565b9250506040613d5c86828701613a51565b9150509250925092565b600060ff82169050919050565b613d7c81613d66565b82525050565b6000602082019050613d976000830184613d73565b92915050565b600080fd5b600080fd5b7f4e487b7100000000000000000000000000000000000000000000000000000000600052604160045260246000fd5b613ddf82613bee565b810181811067ffffffffffffffff82111715613dfe57613dfd613da7565b5b80604052505050565b6000613e11613a1c565b9050613e1d8282613dd6565b919050565b600067ffffffffffffffff821115613e3d57613e3c613da7565b5b613e4682613bee565b9050602081019050919050565b82818337600083830152505050565b6000613e75613e7084613e22565b613e07565b905082815260208101848484011115613e9157613e90613da2565b5b613e9c848285613e53565b509392505050565b600082601f830112613eb957613eb8613d9d565b5b8135613ec9848260208601613e62565b91505092915050565b600080600060608486031215613eeb57613eea613a26565b5b6000613ef986828701613ca3565b9350506020613f0a86828701613a51565b925050604084013567ffffffffffffffff811115613f2b57613f2a613a2b565b5b613f3786828701613ea4565b9150509250925092565b6000604082019050613f566000830185613aac565b613f636020830184613aac565b9392505050565b600060208284031215613f8057613f7f613a26565b5b6000613f8e84828501613ca3565b91505092915050565b613fa081613c7a565b82525050565b6000602082019050613fbb6000830184613f97565b92915050565b600067ffffffffffffffff821115613fdc57613fdb613da7565b5b602082029050602081019050919050565b600080fd5b613ffb81613a93565b811461400657600080fd5b50565b60008135905061401881613ff2565b92915050565b600061403161402c84613fc1565b613e07565b9050808382526020820190506020840283018581111561405457614053613fed565b5b835b8181101561407d57806140698882614009565b845260208401935050602081019050614056565b5050509392505050565b600082601f83011261409c5761409b613d9d565b5b81356140ac84826020860161401e565b91505092915050565b6000602082840312156140cb576140ca613a26565b5b600082013567ffffffffffffffff8111156140e9576140e8613a2b565b5b6140f584828501614087565b91505092915050565b60006080820190506141136000830187613aac565b6141206020830186613b75565b61412d6040830185613f97565b61413a6060830184613aac565b95945050505050565b6000806000806080858703121561415d5761415c613a26565b5b600061416b87828801613ca3565b945050602061417c87828801613ca3565b935050604061418d87828801613a51565b925050606085013567ffffffffffffffff8111156141ae576141ad613a2b565b5b6141ba87828801613ea4565b91505092959194509250565b600080604083850312156141dd576141dc613a26565b5b60006141eb85828601613ca3565b92505060206141fc85828601613ca3565b9150509250929050565b600060208201905061421b6000830184613a9d565b92915050565b7f4e487b7100000000000000000000000000000000000000000000000000000000600052602260045260246000fd5b6000600282049050600182168061426857607f821691505b6020821081141561427c5761427b614221565b5b50919050565b7f4f776e61626c653a2063616c6c6572206973206e6f7420746865206f776e6572600082015250565b60006142b8602083613baa565b91506142c382614282565b602082019050919050565b600060208201905081810360008301526142e7816142ab565b9050919050565b7f5061757361626c653a206e6f7420706175736564000000000000000000000000600082015250565b6000614324601483613baa565b915061432f826142ee565b602082019050919050565b6000602082019050818103600083015261435381614317565b9050919050565b7f42455032304f70657261626c653a205f636865636b416e6443616c6c5472616e60008201527f7366657220726576657274730000000000000000000000000000000000000000602082015250565b60006143b6602c83613baa565b91506143c18261435a565b604082019050919050565b600060208201905081810360008301526143e5816143a9565b9050919050565b7f42455032304d696e7461626c653a206d696e74696e672069732066696e69736860008201527f6564000000000000000000000000000000000000000000000000000000000000602082015250565b6000614448602283613baa565b9150614453826143ec565b604082019050919050565b600060208201905081810360008301526144778161443b565b9050919050565b7f4e487b7100000000000000000000000000000000000000000000000000000000600052601160045260246000fd5b60006144b882613a30565b91506144c383613a30565b9250817fffffffffffffffffffffffffffffffffffffffffffffffffffffffffffffffff04831182151516156144fc576144fb61447e565b5b828202905092915050565b600061451282613a30565b915061451d83613a30565b9250828210156145305761452f61447e565b5b828203905092915050565b7f42455032303a206275726e20616d6f756e74206578636565647320616c6c6f7760008201527f616e636500000000000000000000000000000000000000000000000000000000602082015250565b6000614597602483613baa565b91506145a28261453b565b604082019050919050565b600060208201905081810360008301526145c68161458a565b9050919050565b7f5061757361626c653a2070617573656400000000000000000000000000000000600082015250565b6000614603601083613baa565b915061460e826145cd565b602082019050919050565b60006020820190508181036000830152614632816145f6565b9050919050565b600061464482613a30565b915061464f83613a30565b9250827fffffffffffffffffffffffffffffffffffffffffffffffffffffffffffffffff038211156146845761468361447e565b5b828201905092915050565b600061469a82613a30565b91507fffffffffffffffffffffffffffffffffffffffffffffffffffffffffffffffff8214156146cd576146cc61447e565b5b600182019050919050565b7f42455032304f70657261626c653a205f636865636b416e6443616c6c4170707260008201527f6f76652072657665727473000000000000000000000000000000000000000000602082015250565b6000614734602b83613baa565b915061473f826146d8565b604082019050919050565b6000602082019050818103600083015261476381614727565b9050919050565b7f4e487b7100000000000000000000000000000000000000000000000000000000600052603260045260246000fd5b60006040820190506147ae6000830185613f97565b6147bb6020830184613aac565b9392505050565b6147cb81613b69565b81146147d657600080fd5b50565b6000815190506147e8816147c2565b92915050565b60006020828403121561480457614803613a26565b5b6000614812848285016147d9565b91505092915050565b7f4f776e61626c653a206e6577206f776e657220697320746865207a65726f206160008201527f6464726573730000000000000000000000000000000000000000000000000000602082015250565b6000614877602683613baa565b91506148828261481b565b604082019050919050565b600060208201905081810360008301526148a68161486a565b9050919050565b7f42455032304361707065643a2063617020657863656564656400000000000000600082015250565b60006148e3601983613baa565b91506148ee826148ad565b602082019050919050565b60006020820190508181036000830152614912816148d6565b9050919050565b7f42455032303a206d696e7420746f20746865207a65726f206164647265737300600082015250565b600061494f601f83613baa565b915061495a82614919565b602082019050919050565b6000602082019050818103600083015261497e81614942565b9050919050565b600081519050919050565b600082825260208201905092915050565b60006149ac82614985565b6149b68185614990565b93506149c6818560208601613bbb565b6149cf81613bee565b840191505092915050565b60006080820190506149ef6000830187613f97565b6149fc6020830186613f97565b614a096040830185613aac565b8181036060830152614a1b81846149a1565b905095945050505050565b600081519050614a3581613b10565b92915050565b600060208284031215614a5157614a50613a26565b5b6000614a5f84828501614a26565b91505092915050565b7f42455032303a206275726e2066726f6d20746865207a65726f2061646472657360008201527f7300000000000000000000000000000000000000000000000000000000000000602082015250565b6000614ac4602183613baa565b9150614acf82614a68565b604082019050919050565b60006020820190508181036000830152614af381614ab7565b9050919050565b7f42455032303a206275726e20616d6f756e7420657863656564732062616c616e60008201527f6365000000000000000000000000000000000000000000000000000000000000602082015250565b6000614b56602283613baa565b9150614b6182614afa565b604082019050919050565b60006020820190508181036000830152614b8581614b49565b9050919050565b7f486173206e6f20726967687420746f20766f7465000000000000000000000000600082015250565b6000614bc2601483613baa565b9150614bcd82614b8c565b602082019050919050565b60006020820190508181036000830152614bf181614bb5565b9050919050565b7f416c726561647920766f7465642e000000000000000000000000000000000000600082015250565b6000614c2e600e83613baa565b9150614c3982614bf8565b602082019050919050565b60006020820190508181036000830152614c5d81614c21565b9050919050565b7f42455032303a20617070726f76652066726f6d20746865207a65726f2061646460008201527f7265737300000000000000000000000000000000000000000000000000000000602082015250565b6000614cc0602483613baa565b9150614ccb82614c64565b604082019050919050565b60006020820190508181036000830152614cef81614cb3565b9050919050565b7f42455032303a20617070726f766520746f20746865207a65726f20616464726560008201527f7373000000000000000000000000000000000000000000000000000000000000602082015250565b6000614d52602283613baa565b9150614d5d82614cf6565b604082019050919050565b60006020820190508181036000830152614d8181614d45565b9050919050565b7f4f6e6c792044616f4368616972506572736f6e2063616e20676976652072696760008201527f687420746f20766f74652e000000000000000000000000000000000000000000602082015250565b6000614de4602b83613baa565b9150614def82614d88565b604082019050919050565b60006020820190508181036000830152614e1381614dd7565b9050919050565b7f54686520766f74657220616c726561647920766f7465642e0000000000000000600082015250565b6000614e50601883613baa565b9150614e5b82614e1a565b602082019050919050565b60006020820190508181036000830152614e7f81614e43565b9050919050565b7f596f7520616c726561647920766f7465642e0000000000000000000000000000600082015250565b6000614ebc601283613baa565b9150614ec782614e86565b602082019050919050565b60006020820190508181036000830152614eeb81614eaf565b9050919050565b7f53656c662d64656c65676174696f6e20697320646973616c6c6f7765642e0000600082015250565b6000614f28601e83613baa565b9150614f3382614ef2565b602082019050919050565b60006020820190508181036000830152614f5781614f1b565b9050919050565b7f466f756e64206c6f6f7020696e2064656c65676174696f6e2e00000000000000600082015250565b6000614f94601983613baa565b9150614f9f82614f5e565b602082019050919050565b60006020820190508181036000830152614fc381614f87565b9050919050565b6000606082019050614fdf6000830186613f97565b614fec6020830185613aac565b8181036040830152614ffe81846149a1565b9050949350505050565b7f42455032303a207472616e7366657220616d6f756e742065786365656473206160008201527f6c6c6f77616e6365000000000000000000000000000000000000000000000000602082015250565b6000615064602883613baa565b915061506f82615008565b604082019050919050565b6000602082019050818103600083015261509381615057565b9050919050565b7f42455032303a2064656372656173656420616c6c6f77616e63652062656c6f7760008201527f207a65726f000000000000000000000000000000000000000000000000000000602082015250565b60006150f6602583613baa565b91506151018261509a565b604082019050919050565b60006020820190508181036000830152615125816150e9565b9050919050565b7f42455032303a207472616e736665722066726f6d20746865207a65726f20616460008201527f6472657373000000000000000000000000000000000000000000000000000000602082015250565b6000615188602583613baa565b91506151938261512c565b604082019050919050565b600060208201905081810360008301526151b78161517b565b9050919050565b7f42455032303a207472616e7366657220746f20746865207a65726f206164647260008201527f6573730000000000000000000000000000000000000000000000000000000000602082015250565b600061521a602383613baa565b9150615225826151be565b604082019050919050565b600060208201905081810360008301526152498161520d565b9050919050565b7f42455032303a207472616e7366657220616d6f756e742065786365656473206260008201527f616c616e63650000000000000000000000000000000000000000000000000000602082015250565b60006152ac602683613baa565b91506152b782615250565b604082019050919050565b600060208201905081810360008301526152db8161529f565b9050919050565b7f4e487b7100000000000000000000000000000000000000000000000000000000600052601260045260246000fd5b600061531c82613a30565b915061532783613a30565b925082615337576153366152e2565b5b828204905092915050565b7f42455032303a207265776172647320616d6f756e74206d75737420626520677260008201527f6561746572207468616e207a65726f0000000000000000000000000000000000602082015250565b600061539e602f83613baa565b91506153a982615342565b604082019050919050565b600060208201905081810360008301526153cd81615391565b905091905056fea26469706673582212203f5d54e9a0b071f91730c0046520e8b64fbedff3a871e9ecadb99458b492979964736f6c63430008090033",
  "linkReferences": {},
  "deployedLinkReferences": {}
}