{
  "_format": "hh-sol-artifact-1",
  "contractName": "BEP20SmartContract",
  "sourceName": "src/contracts/BEP20SmartContract.sol",
  "abi": [
    {
      "inputs": [
        {
          "internalType": "string",
          "name": "name_",
          "type": "string"
        },
        {
          "internalType": "string",
          "name": "symbol_",
          "type": "string"
        },
        {
          "internalType": "uint8",
          "name": "decimals_",
          "type": "uint8"
        },
        {
          "internalType": "uint256",
          "name": "cap_",
          "type": "uint256"
        },
        {
          "internalType": "uint256",
          "name": "initialBalance_",
          "type": "uint256"
        },
        {
          "internalType": "address payable",
          "name": "txnFeeReceiver_",
          "type": "address"
        },
        {
          "internalType": "address payable",
          "name": "brnFeeReceiver_",
          "type": "address"
        }
      ],
      "stateMutability": "payable",
      "type": "constructor"
    },
    {
      "anonymous": false,
      "inputs": [
        {
          "indexed": true,
          "internalType": "address",
          "name": "owner",
          "type": "address"
        },
        {
          "indexed": true,
          "internalType": "address",
          "name": "spender",
          "type": "address"
        },
        {
          "indexed": false,
          "internalType": "uint256",
          "name": "value",
          "type": "uint256"
        }
      ],
      "name": "Approval",
      "type": "event"
    },
    {
      "anonymous": false,
      "inputs": [],
      "name": "MintFinished",
      "type": "event"
    },
    {
      "anonymous": false,
      "inputs": [
        {
          "indexed": true,
          "internalType": "address",
          "name": "previousOwner",
          "type": "address"
        },
        {
          "indexed": true,
          "internalType": "address",
          "name": "newOwner",
          "type": "address"
        }
      ],
      "name": "OwnershipTransferred",
      "type": "event"
    },
    {
      "anonymous": false,
      "inputs": [],
      "name": "Pause",
      "type": "event"
    },
    {
      "anonymous": false,
      "inputs": [
        {
          "indexed": false,
          "internalType": "uint256",
          "name": "value",
          "type": "uint256"
        }
      ],
      "name": "Rewards",
      "type": "event"
    },
    {
      "anonymous": false,
      "inputs": [
        {
          "indexed": true,
          "internalType": "address",
          "name": "from",
          "type": "address"
        },
        {
          "indexed": true,
          "internalType": "address",
          "name": "to",
          "type": "address"
        },
        {
          "indexed": false,
          "internalType": "uint256",
          "name": "value",
          "type": "uint256"
        }
      ],
      "name": "Transfer",
      "type": "event"
    },
    {
      "anonymous": false,
      "inputs": [],
      "name": "Unpause",
      "type": "event"
    },
    {
      "inputs": [
        {
          "internalType": "address",
          "name": "sender",
          "type": "address"
        },
        {
          "internalType": "address",
          "name": "recipient",
          "type": "address"
        },
        {
          "internalType": "uint256",
          "name": "amount",
          "type": "uint256"
        }
      ],
      "name": "_bankDeposit",
      "outputs": [
        {
          "internalType": "bool",
          "name": "",
          "type": "bool"
        }
      ],
      "stateMutability": "pure",
      "type": "function"
    },
    {
      "inputs": [
        {
          "internalType": "address",
          "name": "sender",
          "type": "address"
        },
        {
          "internalType": "address",
          "name": "recipient",
          "type": "address"
        },
        {
          "internalType": "uint256",
          "name": "amount",
          "type": "uint256"
        }
      ],
      "name": "_bankWithdraw",
      "outputs": [
        {
          "internalType": "bool",
          "name": "",
          "type": "bool"
        }
      ],
      "stateMutability": "pure",
      "type": "function"
    },
    {
      "inputs": [
        {
          "internalType": "address",
          "name": "owner",
          "type": "address"
        },
        {
          "internalType": "address",
          "name": "spender",
          "type": "address"
        }
      ],
      "name": "allowance",
      "outputs": [
        {
          "internalType": "uint256",
          "name": "",
          "type": "uint256"
        }
      ],
      "stateMutability": "view",
      "type": "function"
    },
    {
      "inputs": [
        {
          "internalType": "address",
          "name": "spender",
          "type": "address"
        },
        {
          "internalType": "uint256",
          "name": "amount",
          "type": "uint256"
        }
      ],
      "name": "approve",
      "outputs": [
        {
          "internalType": "bool",
          "name": "",
          "type": "bool"
        }
      ],
      "stateMutability": "nonpayable",
      "type": "function"
    },
    {
      "inputs": [
        {
          "internalType": "address",
          "name": "spender",
          "type": "address"
        },
        {
          "internalType": "uint256",
          "name": "amount",
          "type": "uint256"
        }
      ],
      "name": "approveAndCall",
      "outputs": [
        {
          "internalType": "bool",
          "name": "",
          "type": "bool"
        }
      ],
      "stateMutability": "nonpayable",
      "type": "function"
    },
    {
      "inputs": [
        {
          "internalType": "address",
          "name": "spender",
          "type": "address"
        },
        {
          "internalType": "uint256",
          "name": "amount",
          "type": "uint256"
        },
        {
          "internalType": "bytes",
          "name": "data",
          "type": "bytes"
        }
      ],
      "name": "approveAndCall",
      "outputs": [
        {
          "internalType": "bool",
          "name": "",
          "type": "bool"
        }
      ],
      "stateMutability": "nonpayable",
      "type": "function"
    },
    {
      "inputs": [
        {
          "internalType": "address",
          "name": "account",
          "type": "address"
        }
      ],
      "name": "balanceOf",
      "outputs": [
        {
          "internalType": "uint256",
          "name": "",
          "type": "uint256"
        }
      ],
      "stateMutability": "view",
      "type": "function"
    },
    {
      "inputs": [
        {
          "internalType": "address",
          "name": "sender",
          "type": "address"
        },
        {
          "internalType": "address",
          "name": "recipient",
          "type": "address"
        },
        {
          "internalType": "uint256",
          "name": "amount",
          "type": "uint256"
        }
      ],
      "name": "bankDeposit",
      "outputs": [
        {
          "internalType": "bool",
          "name": "",
          "type": "bool"
        }
      ],
      "stateMutability": "pure",
      "type": "function"
    },
    {
      "inputs": [
        {
          "internalType": "address",
          "name": "sender",
          "type": "address"
        },
        {
          "internalType": "address",
          "name": "recipient",
          "type": "address"
        },
        {
          "internalType": "uint256",
          "name": "amount",
          "type": "uint256"
        }
      ],
      "name": "bankWithdraw",
      "outputs": [
        {
          "internalType": "bool",
          "name": "",
          "type": "bool"
        }
      ],
      "stateMutability": "pure",
      "type": "function"
    },
    {
      "inputs": [
        {
          "internalType": "uint256",
          "name": "amount",
          "type": "uint256"
        }
      ],
      "name": "burn",
      "outputs": [],
      "stateMutability": "nonpayable",
      "type": "function"
    },
    {
      "inputs": [
        {
          "internalType": "address",
          "name": "account",
          "type": "address"
        },
        {
          "internalType": "uint256",
          "name": "amount",
          "type": "uint256"
        }
      ],
      "name": "burnFrom",
      "outputs": [],
      "stateMutability": "nonpayable",
      "type": "function"
    },
    {
      "inputs": [],
      "name": "cap",
      "outputs": [
        {
          "internalType": "uint256",
          "name": "",
          "type": "uint256"
        }
      ],
      "stateMutability": "view",
      "type": "function"
    },
    {
      "inputs": [],
      "name": "decimals",
      "outputs": [
        {
          "internalType": "uint8",
          "name": "",
          "type": "uint8"
        }
      ],
      "stateMutability": "view",
      "type": "function"
    },
    {
      "inputs": [
        {
          "internalType": "address",
          "name": "spender",
          "type": "address"
        },
        {
          "internalType": "uint256",
          "name": "subtractedValue",
          "type": "uint256"
        }
      ],
      "name": "decreaseAllowance",
      "outputs": [
        {
          "internalType": "bool",
          "name": "",
          "type": "bool"
        }
      ],
      "stateMutability": "nonpayable",
      "type": "function"
    },
    {
      "inputs": [],
      "name": "finishMinting",
      "outputs": [],
      "stateMutability": "nonpayable",
      "type": "function"
    },
    {
      "inputs": [],
      "name": "getBrnFeeReceiverAddress",
      "outputs": [
        {
          "internalType": "address",
          "name": "",
          "type": "address"
        }
      ],
      "stateMutability": "view",
      "type": "function"
    },
    {
      "inputs": [],
      "name": "getOwner",
      "outputs": [
        {
          "internalType": "address",
          "name": "",
          "type": "address"
        }
      ],
      "stateMutability": "view",
      "type": "function"
    },
    {
      "inputs": [],
      "name": "getTxnFeeReceiverAddress",
      "outputs": [
        {
          "internalType": "address",
          "name": "",
          "type": "address"
        }
      ],
      "stateMutability": "view",
      "type": "function"
    },
    {
      "inputs": [
        {
          "internalType": "address",
          "name": "spender",
          "type": "address"
        },
        {
          "internalType": "uint256",
          "name": "addedValue",
          "type": "uint256"
        }
      ],
      "name": "increaseAllowance",
      "outputs": [
        {
          "internalType": "bool",
          "name": "",
          "type": "bool"
        }
      ],
      "stateMutability": "nonpayable",
      "type": "function"
    },
    {
      "inputs": [
        {
          "internalType": "address",
          "name": "account",
          "type": "address"
        },
        {
          "internalType": "uint256",
          "name": "amount",
          "type": "uint256"
        }
      ],
      "name": "mint",
      "outputs": [],
      "stateMutability": "nonpayable",
      "type": "function"
    },
    {
      "inputs": [],
      "name": "mintingFinished",
      "outputs": [
        {
          "internalType": "bool",
          "name": "",
          "type": "bool"
        }
      ],
      "stateMutability": "view",
      "type": "function"
    },
    {
      "inputs": [],
      "name": "name",
      "outputs": [
        {
          "internalType": "string",
          "name": "",
          "type": "string"
        }
      ],
      "stateMutability": "view",
      "type": "function"
    },
    {
      "inputs": [],
      "name": "owner",
      "outputs": [
        {
          "internalType": "address",
          "name": "",
          "type": "address"
        }
      ],
      "stateMutability": "view",
      "type": "function"
    },
    {
      "inputs": [],
      "name": "pause",
      "outputs": [],
      "stateMutability": "nonpayable",
      "type": "function"
    },
    {
      "inputs": [
        {
          "internalType": "address",
          "name": "tokenAddress",
          "type": "address"
        },
        {
          "internalType": "uint256",
          "name": "tokenAmount",
          "type": "uint256"
        }
      ],
      "name": "recoverBEP20",
      "outputs": [],
      "stateMutability": "nonpayable",
      "type": "function"
    },
    {
      "inputs": [],
      "name": "renounceOwnership",
      "outputs": [],
      "stateMutability": "nonpayable",
      "type": "function"
    },
    {
      "inputs": [
        {
          "internalType": "bytes4",
          "name": "interfaceId",
          "type": "bytes4"
        }
      ],
      "name": "supportsInterface",
      "outputs": [
        {
          "internalType": "bool",
          "name": "",
          "type": "bool"
        }
      ],
      "stateMutability": "view",
      "type": "function"
    },
    {
      "inputs": [],
      "name": "symbol",
      "outputs": [
        {
          "internalType": "string",
          "name": "",
          "type": "string"
        }
      ],
      "stateMutability": "view",
      "type": "function"
    },
    {
      "inputs": [],
      "name": "totalSupply",
      "outputs": [
        {
          "internalType": "uint256",
          "name": "",
          "type": "uint256"
        }
      ],
      "stateMutability": "view",
      "type": "function"
    },
    {
      "inputs": [
        {
          "internalType": "address",
          "name": "recipient",
          "type": "address"
        },
        {
          "internalType": "uint256",
          "name": "amount",
          "type": "uint256"
        }
      ],
      "name": "transfer",
      "outputs": [
        {
          "internalType": "bool",
          "name": "",
          "type": "bool"
        }
      ],
      "stateMutability": "nonpayable",
      "type": "function"
    },
    {
      "inputs": [
        {
          "internalType": "address",
          "name": "recipient",
          "type": "address"
        },
        {
          "internalType": "uint256",
          "name": "amount",
          "type": "uint256"
        }
      ],
      "name": "transferAndCall",
      "outputs": [
        {
          "internalType": "bool",
          "name": "",
          "type": "bool"
        }
      ],
      "stateMutability": "nonpayable",
      "type": "function"
    },
    {
      "inputs": [
        {
          "internalType": "address",
          "name": "recipient",
          "type": "address"
        },
        {
          "internalType": "uint256",
          "name": "amount",
          "type": "uint256"
        },
        {
          "internalType": "bytes",
          "name": "data",
          "type": "bytes"
        }
      ],
      "name": "transferAndCall",
      "outputs": [
        {
          "internalType": "bool",
          "name": "",
          "type": "bool"
        }
      ],
      "stateMutability": "nonpayable",
      "type": "function"
    },
    {
      "inputs": [
        {
          "internalType": "address",
          "name": "sender",
          "type": "address"
        },
        {
          "internalType": "address",
          "name": "recipient",
          "type": "address"
        },
        {
          "internalType": "uint256",
          "name": "amount",
          "type": "uint256"
        }
      ],
      "name": "transferFrom",
      "outputs": [
        {
          "internalType": "bool",
          "name": "",
          "type": "bool"
        }
      ],
      "stateMutability": "nonpayable",
      "type": "function"
    },
    {
      "inputs": [
        {
          "internalType": "address",
          "name": "sender",
          "type": "address"
        },
        {
          "internalType": "address",
          "name": "recipient",
          "type": "address"
        },
        {
          "internalType": "uint256",
          "name": "amount",
          "type": "uint256"
        },
        {
          "internalType": "bytes",
          "name": "data",
          "type": "bytes"
        }
      ],
      "name": "transferFromAndCall",
      "outputs": [
        {
          "internalType": "bool",
          "name": "",
          "type": "bool"
        }
      ],
      "stateMutability": "nonpayable",
      "type": "function"
    },
    {
      "inputs": [
        {
          "internalType": "address",
          "name": "sender",
          "type": "address"
        },
        {
          "internalType": "address",
          "name": "recipient",
          "type": "address"
        },
        {
          "internalType": "uint256",
          "name": "amount",
          "type": "uint256"
        }
      ],
      "name": "transferFromAndCall",
      "outputs": [
        {
          "internalType": "bool",
          "name": "",
          "type": "bool"
        }
      ],
      "stateMutability": "nonpayable",
      "type": "function"
    },
    {
      "inputs": [
        {
          "internalType": "address",
          "name": "newOwner",
          "type": "address"
        }
      ],
      "name": "transferOwnership",
      "outputs": [],
      "stateMutability": "nonpayable",
      "type": "function"
    },
    {
      "inputs": [],
      "name": "unpause",
      "outputs": [],
      "stateMutability": "nonpayable",
      "type": "function"
    }
  ],
  "bytecode": "0x60806040526000600860006101000a81548160ff0219169083151502179055506000600860016101000a81548160ff02191690831515021790555060405162004d6938038062004d6983398181016040528101906200005f9190620009dd565b8082858760ff168a8a620000886200007c620002ea60201b60201c565b620002f260201b60201c565b8160049080519060200190620000a0929190620006b2565b508060059080519060200190620000b9929190620006b2565b5050506000821162000102576040517f08c379a0000000000000000000000000000000000000000000000000000000008152600401620000f99062000b2f565b60405180910390fd5b80600a62000111919062000cd4565b826200011e919062000d25565b6007819055505050600073ffffffffffffffffffffffffffffffffffffffff168173ffffffffffffffffffffffffffffffffffffffff16141562000199576040517f08c379a0000000000000000000000000000000000000000000000000000000008152600401620001909062000dfc565b60405180910390fd5b80600860026101000a81548173ffffffffffffffffffffffffffffffffffffffff021916908373ffffffffffffffffffffffffffffffffffffffff16021790555050600073ffffffffffffffffffffffffffffffffffffffff168173ffffffffffffffffffffffffffffffffffffffff1614156200024e576040517f08c379a0000000000000000000000000000000000000000000000000000000008152600401620002459062000e94565b60405180910390fd5b80600960006101000a81548173ffffffffffffffffffffffffffffffffffffffff021916908373ffffffffffffffffffffffffffffffffffffffff16021790555050620002a185620003b660201b60201c565b620002dd620002b5620002ea60201b60201c565b86600a620002c4919062000eb6565b85620002d1919062000d25565b620003d460201b60201c565b505050505050506200114d565b600033905090565b60008060009054906101000a900473ffffffffffffffffffffffffffffffffffffffff169050816000806101000a81548173ffffffffffffffffffffffffffffffffffffffff021916908373ffffffffffffffffffffffffffffffffffffffff1602179055508173ffffffffffffffffffffffffffffffffffffffff168173ffffffffffffffffffffffffffffffffffffffff167f8be0079c531659141344cd1fd0a4f28419497f9722a3daafe3b4186f6b6457e060405160405180910390a35050565b80600660006101000a81548160ff021916908360ff16021790555050565b620003e4620002ea60201b60201c565b73ffffffffffffffffffffffffffffffffffffffff166200040a6200047e60201b60201c565b73ffffffffffffffffffffffffffffffffffffffff161462000463576040517f08c379a00000000000000000000000000000000000000000000000000000000081526004016200045a9062000f57565b60405180910390fd5b6200047a8282620004a760201b620013011760201c565b5050565b60008060009054906101000a900473ffffffffffffffffffffffffffffffffffffffff16905090565b620004b76200053360201b60201c565b81620004c86200053d60201b60201c565b620004d4919062000f79565b111562000518576040517f08c379a00000000000000000000000000000000000000000000000000000000081526004016200050f9062001026565b60405180910390fd5b6200052f82826200054760201b6200136b1760201c565b5050565b6000600754905090565b6000600354905090565b600073ffffffffffffffffffffffffffffffffffffffff168273ffffffffffffffffffffffffffffffffffffffff161415620005ba576040517f08c379a0000000000000000000000000000000000000000000000000000000008152600401620005b19062001098565b60405180910390fd5b620005ce60008383620006ad60201b60201c565b8060036000828254620005e2919062000f79565b9250508190555080600160008473ffffffffffffffffffffffffffffffffffffffff1673ffffffffffffffffffffffffffffffffffffffff16815260200190815260200160002060008282546200063a919062000f79565b925050819055508173ffffffffffffffffffffffffffffffffffffffff16600073ffffffffffffffffffffffffffffffffffffffff167fddf252ad1be2c89b69c2b068fc378daa952ba7f163c4a11628f55a4df523b3ef83604051620006a19190620010cb565b60405180910390a35050565b505050565b828054620006c09062001117565b90600052602060002090601f016020900481019282620006e4576000855562000730565b82601f10620006ff57805160ff191683800117855562000730565b8280016001018555821562000730579182015b828111156200072f57825182559160200191906001019062000712565b5b5090506200073f919062000743565b5090565b5b808211156200075e57600081600090555060010162000744565b5090565b6000604051905090565b600080fd5b600080fd5b600080fd5b600080fd5b6000601f19601f8301169050919050565b7f4e487b7100000000000000000000000000000000000000000000000000000000600052604160045260246000fd5b620007cb8262000780565b810181811067ffffffffffffffff82111715620007ed57620007ec62000791565b5b80604052505050565b60006200080262000762565b9050620008108282620007c0565b919050565b600067ffffffffffffffff82111562000833576200083262000791565b5b6200083e8262000780565b9050602081019050919050565b60005b838110156200086b5780820151818401526020810190506200084e565b838111156200087b576000848401525b50505050565b600062000898620008928462000815565b620007f6565b905082815260208101848484011115620008b757620008b66200077b565b5b620008c48482856200084b565b509392505050565b600082601f830112620008e457620008e362000776565b5b8151620008f684826020860162000881565b91505092915050565b600060ff82169050919050565b6200091781620008ff565b81146200092357600080fd5b50565b60008151905062000937816200090c565b92915050565b6000819050919050565b62000952816200093d565b81146200095e57600080fd5b50565b600081519050620009728162000947565b92915050565b600073ffffffffffffffffffffffffffffffffffffffff82169050919050565b6000620009a58262000978565b9050919050565b620009b78162000998565b8114620009c357600080fd5b50565b600081519050620009d781620009ac565b92915050565b600080600080600080600060e0888a031215620009ff57620009fe6200076c565b5b600088015167ffffffffffffffff81111562000a205762000a1f62000771565b5b62000a2e8a828b01620008cc565b975050602088015167ffffffffffffffff81111562000a525762000a5162000771565b5b62000a608a828b01620008cc565b965050604062000a738a828b0162000926565b955050606062000a868a828b0162000961565b945050608062000a998a828b0162000961565b93505060a062000aac8a828b01620009c6565b92505060c062000abf8a828b01620009c6565b91505092959891949750929550565b600082825260208201905092915050565b7f42455032304361707065643a2063617020697320300000000000000000000000600082015250565b600062000b1760158362000ace565b915062000b248262000adf565b602082019050919050565b6000602082019050818103600083015262000b4a8162000b08565b9050919050565b7f4e487b7100000000000000000000000000000000000000000000000000000000600052601160045260246000fd5b60008160011c9050919050565b6000808291508390505b600185111562000bdf5780860481111562000bb75762000bb662000b51565b5b600185161562000bc75780820291505b808102905062000bd78562000b80565b945062000b97565b94509492505050565b60008262000bfa576001905062000ccd565b8162000c0a576000905062000ccd565b816001811462000c23576002811462000c2e5762000c64565b600191505062000ccd565b60ff84111562000c435762000c4262000b51565b5b8360020a91508482111562000c5d5762000c5c62000b51565b5b5062000ccd565b5060208310610133831016604e8410600b841016171562000c9e5782820a90508381111562000c985762000c9762000b51565b5b62000ccd565b62000cad848484600162000b8d565b9250905081840481111562000cc75762000cc662000b51565b5b81810290505b9392505050565b600062000ce1826200093d565b915062000cee836200093d565b925062000d1d7fffffffffffffffffffffffffffffffffffffffffffffffffffffffffffffffff848462000be8565b905092915050565b600062000d32826200093d565b915062000d3f836200093d565b9250817fffffffffffffffffffffffffffffffffffffffffffffffffffffffffffffffff048311821515161562000d7b5762000d7a62000b51565b5b828202905092915050565b7f424550323054786e4665655265636569766572416464726573733a2074786e4660008201527f6565526563656976657241646472657373206973203000000000000000000000602082015250565b600062000de460368362000ace565b915062000df18262000d86565b604082019050919050565b6000602082019050818103600083015262000e178162000dd5565b9050919050565b7f424550323042726e4665655265636569766572416464726573733a2062726e4660008201527f6565526563656976657241646472657373206973203000000000000000000000602082015250565b600062000e7c60368362000ace565b915062000e898262000e1e565b604082019050919050565b6000602082019050818103600083015262000eaf8162000e6d565b9050919050565b600062000ec3826200093d565b915062000ed083620008ff565b925062000eff7fffffffffffffffffffffffffffffffffffffffffffffffffffffffffffffffff848462000be8565b905092915050565b7f4f776e61626c653a2063616c6c6572206973206e6f7420746865206f776e6572600082015250565b600062000f3f60208362000ace565b915062000f4c8262000f07565b602082019050919050565b6000602082019050818103600083015262000f728162000f30565b9050919050565b600062000f86826200093d565b915062000f93836200093d565b9250827fffffffffffffffffffffffffffffffffffffffffffffffffffffffffffffffff0382111562000fcb5762000fca62000b51565b5b828201905092915050565b7f42455032304361707065643a2063617020657863656564656400000000000000600082015250565b60006200100e60198362000ace565b91506200101b8262000fd6565b602082019050919050565b60006020820190508181036000830152620010418162000fff565b9050919050565b7f42455032303a206d696e7420746f20746865207a65726f206164647265737300600082015250565b600062001080601f8362000ace565b91506200108d8262001048565b602082019050919050565b60006020820190508181036000830152620010b38162001071565b9050919050565b620010c5816200093d565b82525050565b6000602082019050620010e26000830184620010ba565b92915050565b7f4e487b7100000000000000000000000000000000000000000000000000000000600052602260045260246000fd5b600060028204905060018216806200113057607f821691505b60208210811415620011475762001146620010e8565b5b50919050565b613c0c806200115d6000396000f3fe608060405234801561001057600080fd5b50600436106102275760003560e01c8063715018a611610130578063a457c2d7116100b8578063d8fbe9941161007c578063d8fbe994146106a4578063dd62ed3e146106d4578063e615112014610704578063efa0880614610734578063f2fde38b1461075057610227565b8063a457c2d7146105c6578063a9059cbb146105f6578063b566751814610626578063c1d34b8914610644578063cae9ca511461067457610227565b80637d64bcb4116100ff5780637d64bcb4146105585780638456cb5914610562578063893d20e81461056c5780638da5cb5b1461058a57806395d89b41146105a857610227565b8063715018a6146104e457806379cc6790146104ee5780637a8a44c51461050a5780637aaa0cb61461052857610227565b80633177029f116101b35780634000aea0116101825780634000aea01461041c57806340c10f191461044c57806342966c6814610468578063657b52f81461048457806370a08231146104b457610227565b80633177029f14610394578063355274ea146103c457806339509351146103e25780633f4ba83a1461041257610227565b8063095ea7b3116101fa578063095ea7b3146102c85780631296ee62146102f857806318160ddd1461032857806323b872dd14610346578063313ce5671461037657610227565b806301ffc9a71461022c57806305d2035b1461025c57806306992d791461027a57806306fdde03146102aa575b600080fd5b61024660048036038101906102419190612824565b61076c565b604051610253919061286c565b60405180910390f35b6102646107e6565b604051610271919061286c565b60405180910390f35b610294600480360381019061028f919061291b565b6107fd565b6040516102a1919061286c565b60405180910390f35b6102b2610813565b6040516102bf9190612a07565b60405180910390f35b6102e260048036038101906102dd9190612a29565b6108a5565b6040516102ef919061286c565b60405180910390f35b610312600480360381019061030d9190612a29565b6108b9565b60405161031f919061286c565b60405180910390f35b6103306108dd565b60405161033d9190612a78565b60405180910390f35b610360600480360381019061035b919061291b565b6108e7565b60405161036d919061286c565b60405180910390f35b61037e6108fd565b60405161038b9190612aaf565b60405180910390f35b6103ae60048036038101906103a99190612a29565b610914565b6040516103bb919061286c565b60405180910390f35b6103cc610938565b6040516103d99190612a78565b60405180910390f35b6103fc60048036038101906103f79190612a29565b610942565b604051610409919061286c565b60405180910390f35b61041a610956565b005b61043660048036038101906104319190612bff565b610a6a565b604051610443919061286c565b60405180910390f35b61046660048036038101906104619190612a29565b610ad4565b005b610482600480360381019061047d9190612c6e565b610b32565b005b61049e6004803603810190610499919061291b565b610b46565b6040516104ab919061286c565b60405180910390f35b6104ce60048036038101906104c99190612c9b565b610b5c565b6040516104db9190612a78565b60405180910390f35b6104ec610ba5565b005b61050860048036038101906105039190612a29565b610c2d565b005b610512610cb1565b60405161051f9190612cd7565b60405180910390f35b610542600480360381019061053d919061291b565b610cdb565b60405161054f919061286c565b60405180910390f35b610560610ce8565b005b61056a610d42565b005b610574610e57565b6040516105819190612cd7565b60405180910390f35b610592610e66565b60405161059f9190612cd7565b60405180910390f35b6105b0610e8f565b6040516105bd9190612a07565b60405180910390f35b6105e060048036038101906105db9190612a29565b610f21565b6040516105ed919061286c565b60405180910390f35b610610600480360381019061060b9190612a29565b610f35565b60405161061d919061286c565b60405180910390f35b61062e610f49565b60405161063b9190612cd7565b60405180910390f35b61065e60048036038101906106599190612cf2565b610f73565b60405161066b919061286c565b60405180910390f35b61068e60048036038101906106899190612bff565b610fd8565b60405161069b919061286c565b60405180910390f35b6106be60048036038101906106b9919061291b565b61103a565b6040516106cb919061286c565b60405180910390f35b6106ee60048036038101906106e99190612d75565b611060565b6040516106fb9190612a78565b60405180910390f35b61071e6004803603810190610719919061291b565b6110e7565b60405161072b919061286c565b60405180910390f35b61074e60048036038101906107499190612a29565b6110f4565b005b61076a60048036038101906107659190612c9b565b611209565b005b60007fb0202a11000000000000000000000000000000000000000000000000000000007bffffffffffffffffffffffffffffffffffffffffffffffffffffffff1916827bffffffffffffffffffffffffffffffffffffffffffffffffffffffff191614806107df57506107de826114c0565b5b9050919050565b6000600860009054906101000a900460ff16905090565b600061080a8484846110e7565b90509392505050565b60606004805461082290612de4565b80601f016020809104026020016040519081016040528092919081815260200182805461084e90612de4565b801561089b5780601f106108705761010080835404028352916020019161089b565b820191906000526020600020905b81548152906001019060200180831161087e57829003601f168201915b5050505050905090565b60006108b1838361152a565b905092915050565b60006108d5838360405180602001604052806000815250610a6a565b905092915050565b6000600354905090565b60006108f484848461158e565b90509392505050565b6000600660009054906101000a900460ff16905090565b6000610930838360405180602001604052806000815250610fd8565b905092915050565b6000600754905090565b600061094e83836115f4565b905092915050565b61095e611658565b73ffffffffffffffffffffffffffffffffffffffff1661097c610e66565b73ffffffffffffffffffffffffffffffffffffffff16146109d2576040517f08c379a00000000000000000000000000000000000000000000000000000000081526004016109c990612e62565b60405180910390fd5b600860019054906101000a900460ff16610a21576040517f08c379a0000000000000000000000000000000000000000000000000000000008152600401610a1890612ece565b60405180910390fd5b6000600860016101000a81548160ff0219169083151502179055507f7805862f689e2f13df9f062ff482ad3ad112aca9e0847911ed832e158c525b3360405160405180910390a1565b6000610a768484610f35565b50610a8a610a82611658565b858585611660565b610ac9576040517f08c379a0000000000000000000000000000000000000000000000000000000008152600401610ac090612f60565b60405180910390fd5b600190509392505050565b600860009054906101000a900460ff1615610b24576040517f08c379a0000000000000000000000000000000000000000000000000000000008152600401610b1b90612ff2565b60405180910390fd5b610b2e828261177e565b5050565b610b43610b3d611658565b82611808565b50565b6000610b53848484610cdb565b90509392505050565b6000600160008373ffffffffffffffffffffffffffffffffffffffff1673ffffffffffffffffffffffffffffffffffffffff168152602001908152602001600020549050919050565b610bad611658565b73ffffffffffffffffffffffffffffffffffffffff16610bcb610e66565b73ffffffffffffffffffffffffffffffffffffffff1614610c21576040517f08c379a0000000000000000000000000000000000000000000000000000000008152600401610c1890612e62565b60405180910390fd5b610c2b60006119de565b565b6000610c4083610c3b611658565b611060565b905081811015610c85576040517f08c379a0000000000000000000000000000000000000000000000000000000008152600401610c7c90613084565b60405180910390fd5b610ca283610c91611658565b8484610c9d91906130d3565b611aa2565b610cac8383611808565b505050565b6000600860029054906101000a900473ffffffffffffffffffffffffffffffffffffffff16905090565b6000600190509392505050565b600860009054906101000a900460ff1615610d38576040517f08c379a0000000000000000000000000000000000000000000000000000000008152600401610d2f90612ff2565b60405180910390fd5b610d40611c6d565b565b610d4a611658565b73ffffffffffffffffffffffffffffffffffffffff16610d68610e66565b73ffffffffffffffffffffffffffffffffffffffff1614610dbe576040517f08c379a0000000000000000000000000000000000000000000000000000000008152600401610db590612e62565b60405180910390fd5b600860019054906101000a900460ff1615610e0e576040517f08c379a0000000000000000000000000000000000000000000000000000000008152600401610e0590613153565b60405180910390fd5b6001600860016101000a81548160ff0219169083151502179055507f6985a02210a168e66602d3235cb6db0e70f92b3ba4d376a33c0f3d9434bff62560405160405180910390a1565b6000610e61610e66565b905090565b60008060009054906101000a900473ffffffffffffffffffffffffffffffffffffffff16905090565b606060058054610e9e90612de4565b80601f0160208091040260200160405190810160405280929190818152602001828054610eca90612de4565b8015610f175780601f10610eec57610100808354040283529160200191610f17565b820191906000526020600020905b815481529060010190602001808311610efa57829003601f168201915b5050505050905090565b6000610f2d8383611cf3565b905092915050565b6000610f418383611d57565b905092915050565b6000600960009054906101000a900473ffffffffffffffffffffffffffffffffffffffff16905090565b6000610f808585856108e7565b50610f8d85858585611660565b610fcc576040517f08c379a0000000000000000000000000000000000000000000000000000000008152600401610fc390612f60565b60405180910390fd5b60019050949350505050565b6000610fe484846108a5565b50610ff0848484611dbb565b61102f576040517f08c379a0000000000000000000000000000000000000000000000000000000008152600401611026906131e5565b60405180910390fd5b600190509392505050565b600061105784848460405180602001604052806000815250610f73565b90509392505050565b6000600260008473ffffffffffffffffffffffffffffffffffffffff1673ffffffffffffffffffffffffffffffffffffffff16815260200190815260200160002060008373ffffffffffffffffffffffffffffffffffffffff1673ffffffffffffffffffffffffffffffffffffffff16815260200190815260200160002054905092915050565b6000600190509392505050565b6110fc611658565b73ffffffffffffffffffffffffffffffffffffffff1661111a610e66565b73ffffffffffffffffffffffffffffffffffffffff1614611170576040517f08c379a000000000000000000000000000000000000000000000000000000000815260040161116790612e62565b60405180910390fd5b8173ffffffffffffffffffffffffffffffffffffffff1663a9059cbb611194610e66565b836040518363ffffffff1660e01b81526004016111b2929190613205565b602060405180830381600087803b1580156111cc57600080fd5b505af11580156111e0573d6000803e3d6000fd5b505050506040513d601f19601f82011682018060405250810190611204919061325a565b505050565b611211611658565b73ffffffffffffffffffffffffffffffffffffffff1661122f610e66565b73ffffffffffffffffffffffffffffffffffffffff1614611285576040517f08c379a000000000000000000000000000000000000000000000000000000000815260040161127c90612e62565b60405180910390fd5b600073ffffffffffffffffffffffffffffffffffffffff168173ffffffffffffffffffffffffffffffffffffffff1614156112f5576040517f08c379a00000000000000000000000000000000000000000000000000000000081526004016112ec906132f9565b60405180910390fd5b6112fe816119de565b50565b611309610938565b816113126108dd565b61131c9190613319565b111561135d576040517f08c379a0000000000000000000000000000000000000000000000000000000008152600401611354906133bb565b60405180910390fd5b611367828261136b565b5050565b600073ffffffffffffffffffffffffffffffffffffffff168273ffffffffffffffffffffffffffffffffffffffff1614156113db576040517f08c379a00000000000000000000000000000000000000000000000000000000081526004016113d290613427565b60405180910390fd5b6113e760008383611ed6565b80600360008282546113f99190613319565b9250508190555080600160008473ffffffffffffffffffffffffffffffffffffffff1673ffffffffffffffffffffffffffffffffffffffff168152602001908152602001600020600082825461144f9190613319565b925050819055508173ffffffffffffffffffffffffffffffffffffffff16600073ffffffffffffffffffffffffffffffffffffffff167fddf252ad1be2c89b69c2b068fc378daa952ba7f163c4a11628f55a4df523b3ef836040516114b49190612a78565b60405180910390a35050565b60007f01ffc9a7000000000000000000000000000000000000000000000000000000007bffffffffffffffffffffffffffffffffffffffffffffffffffffffff1916827bffffffffffffffffffffffffffffffffffffffffffffffffffffffff1916149050919050565b6000600860019054906101000a900460ff161561157c576040517f08c379a000000000000000000000000000000000000000000000000000000000815260040161157390613153565b60405180910390fd5b6115868383611edb565b905092915050565b6000600860019054906101000a900460ff16156115e0576040517f08c379a00000000000000000000000000000000000000000000000000000000081526004016115d790613153565b60405180910390fd5b6115eb848484611ef9565b90509392505050565b6000600860019054906101000a900460ff1615611646576040517f08c379a000000000000000000000000000000000000000000000000000000000815260040161163d90613153565b60405180910390fd5b6116508383611ffa565b905092915050565b600033905090565b60006116818473ffffffffffffffffffffffffffffffffffffffff166120a6565b61168e5760009050611776565b60008473ffffffffffffffffffffffffffffffffffffffff166388a7ca5c6116b4611658565b8887876040518563ffffffff1660e01b81526004016116d6949392919061349c565b602060405180830381600087803b1580156116f057600080fd5b505af1158015611704573d6000803e3d6000fd5b505050506040513d601f19601f8201168201806040525081019061172891906134fd565b90506388a7ca5c60e01b7bffffffffffffffffffffffffffffffffffffffffffffffffffffffff1916817bffffffffffffffffffffffffffffffffffffffffffffffffffffffff1916149150505b949350505050565b611786611658565b73ffffffffffffffffffffffffffffffffffffffff166117a4610e66565b73ffffffffffffffffffffffffffffffffffffffff16146117fa576040517f08c379a00000000000000000000000000000000000000000000000000000000081526004016117f190612e62565b60405180910390fd5b6118048282611301565b5050565b600073ffffffffffffffffffffffffffffffffffffffff168273ffffffffffffffffffffffffffffffffffffffff161415611878576040517f08c379a000000000000000000000000000000000000000000000000000000000815260040161186f9061359c565b60405180910390fd5b61188482600083611ed6565b6000600160008473ffffffffffffffffffffffffffffffffffffffff1673ffffffffffffffffffffffffffffffffffffffff1681526020019081526020016000205490508181101561190b576040517f08c379a00000000000000000000000000000000000000000000000000000000081526004016119029061362e565b60405180910390fd5b818161191791906130d3565b600160008573ffffffffffffffffffffffffffffffffffffffff1673ffffffffffffffffffffffffffffffffffffffff16815260200190815260200160002081905550816003600082825461196c91906130d3565b92505081905550600073ffffffffffffffffffffffffffffffffffffffff168373ffffffffffffffffffffffffffffffffffffffff167fddf252ad1be2c89b69c2b068fc378daa952ba7f163c4a11628f55a4df523b3ef846040516119d19190612a78565b60405180910390a3505050565b60008060009054906101000a900473ffffffffffffffffffffffffffffffffffffffff169050816000806101000a81548173ffffffffffffffffffffffffffffffffffffffff021916908373ffffffffffffffffffffffffffffffffffffffff1602179055508173ffffffffffffffffffffffffffffffffffffffff168173ffffffffffffffffffffffffffffffffffffffff167f8be0079c531659141344cd1fd0a4f28419497f9722a3daafe3b4186f6b6457e060405160405180910390a35050565b600073ffffffffffffffffffffffffffffffffffffffff168373ffffffffffffffffffffffffffffffffffffffff161415611b12576040517f08c379a0000000000000000000000000000000000000000000000000000000008152600401611b09906136c0565b60405180910390fd5b600073ffffffffffffffffffffffffffffffffffffffff168273ffffffffffffffffffffffffffffffffffffffff161415611b82576040517f08c379a0000000000000000000000000000000000000000000000000000000008152600401611b7990613752565b60405180910390fd5b80600260008573ffffffffffffffffffffffffffffffffffffffff1673ffffffffffffffffffffffffffffffffffffffff16815260200190815260200160002060008473ffffffffffffffffffffffffffffffffffffffff1673ffffffffffffffffffffffffffffffffffffffff168152602001908152602001600020819055508173ffffffffffffffffffffffffffffffffffffffff168373ffffffffffffffffffffffffffffffffffffffff167f8c5be1e5ebec7d5bd14f71427d1e84f3dd0314c0f7b2291e5b200ac8c7c3b92583604051611c609190612a78565b60405180910390a3505050565b611c75611658565b73ffffffffffffffffffffffffffffffffffffffff16611c93610e66565b73ffffffffffffffffffffffffffffffffffffffff1614611ce9576040517f08c379a0000000000000000000000000000000000000000000000000000000008152600401611ce090612e62565b60405180910390fd5b611cf16120b9565b565b6000600860019054906101000a900460ff1615611d45576040517f08c379a0000000000000000000000000000000000000000000000000000000008152600401611d3c90613153565b60405180910390fd5b611d4f8383612102565b905092915050565b6000600860019054906101000a900460ff1615611da9576040517f08c379a0000000000000000000000000000000000000000000000000000000008152600401611da090613153565b60405180910390fd5b611db383836121f6565b905092915050565b6000611ddc8473ffffffffffffffffffffffffffffffffffffffff166120a6565b611de95760009050611ecf565b60008473ffffffffffffffffffffffffffffffffffffffff16637b04a2d0611e0f611658565b86866040518463ffffffff1660e01b8152600401611e2f93929190613772565b602060405180830381600087803b158015611e4957600080fd5b505af1158015611e5d573d6000803e3d6000fd5b505050506040513d601f19601f82011682018060405250810190611e8191906134fd565b9050637b04a2d060e01b7bffffffffffffffffffffffffffffffffffffffffffffffffffffffff1916817bffffffffffffffffffffffffffffffffffffffffffffffffffffffff1916149150505b9392505050565b505050565b6000611eef611ee8611658565b8484611aa2565b6001905092915050565b6000611f06848484612214565b6000600260008673ffffffffffffffffffffffffffffffffffffffff1673ffffffffffffffffffffffffffffffffffffffff1681526020019081526020016000206000611f51611658565b73ffffffffffffffffffffffffffffffffffffffff1673ffffffffffffffffffffffffffffffffffffffff16815260200190815260200160002054905082811015611fd1576040517f08c379a0000000000000000000000000000000000000000000000000000000008152600401611fc890613822565b60405180910390fd5b611fee85611fdd611658565b8584611fe991906130d3565b611aa2565b60019150509392505050565b600061209c612007611658565b848460026000612015611658565b73ffffffffffffffffffffffffffffffffffffffff1673ffffffffffffffffffffffffffffffffffffffff16815260200190815260200160002060008873ffffffffffffffffffffffffffffffffffffffff1673ffffffffffffffffffffffffffffffffffffffff168152602001908152602001600020546120979190613319565b611aa2565b6001905092915050565b600080823b905060008111915050919050565b6001600860006101000a81548160ff0219169083151502179055507fae5184fba832cb2b1f702aca6117b8d265eaf03ad33eb133f19dde0f5920fa0860405160405180910390a1565b60008060026000612111611658565b73ffffffffffffffffffffffffffffffffffffffff1673ffffffffffffffffffffffffffffffffffffffff16815260200190815260200160002060008573ffffffffffffffffffffffffffffffffffffffff1673ffffffffffffffffffffffffffffffffffffffff168152602001908152602001600020549050828110156121ce576040517f08c379a00000000000000000000000000000000000000000000000000000000081526004016121c5906138b4565b60405180910390fd5b6121eb6121d9611658565b8585846121e691906130d3565b611aa2565b600191505092915050565b600061220a612203611658565b8484612214565b6001905092915050565b61221f838383612224565b505050565b600073ffffffffffffffffffffffffffffffffffffffff168373ffffffffffffffffffffffffffffffffffffffff161415612294576040517f08c379a000000000000000000000000000000000000000000000000000000000815260040161228b90613946565b60405180910390fd5b600073ffffffffffffffffffffffffffffffffffffffff168273ffffffffffffffffffffffffffffffffffffffff161415612304576040517f08c379a00000000000000000000000000000000000000000000000000000000081526004016122fb906139d8565b60405180910390fd5b61230f838383611ed6565b6000600160008573ffffffffffffffffffffffffffffffffffffffff1673ffffffffffffffffffffffffffffffffffffffff16815260200190815260200160002054905081811015612396576040517f08c379a000000000000000000000000000000000000000000000000000000000815260040161238d90613a6a565b60405180910390fd5b6123a9828261270f90919063ffffffff16565b600160008673ffffffffffffffffffffffffffffffffffffffff1673ffffffffffffffffffffffffffffffffffffffff1681526020019081526020016000208190555060006123f6610cb1565b90506000612402610f49565b90506000620186a06004866124179190613a8a565b6124219190613b13565b90506000620186a06005876124369190613a8a565b6124409190613b13565b90506000620186a0876124539190613b13565b9050600061247c8261246e858761272590919063ffffffff16565b61272590919063ffffffff16565b9050612491818961270f90919063ffffffff16565b5087600160008b73ffffffffffffffffffffffffffffffffffffffff1673ffffffffffffffffffffffffffffffffffffffff16815260200190815260200160002060008282546124e19190613319565b9250508190555083600160008773ffffffffffffffffffffffffffffffffffffffff1673ffffffffffffffffffffffffffffffffffffffff16815260200190815260200160002060008282546125379190613319565b9250508190555081600160008873ffffffffffffffffffffffffffffffffffffffff1673ffffffffffffffffffffffffffffffffffffffff168152602001908152602001600020600082825461258d9190613319565b9250508190555061259d8361273b565b8873ffffffffffffffffffffffffffffffffffffffff168a73ffffffffffffffffffffffffffffffffffffffff167fddf252ad1be2c89b69c2b068fc378daa952ba7f163c4a11628f55a4df523b3ef8a6040516125fa9190612a78565b60405180910390a38473ffffffffffffffffffffffffffffffffffffffff168a73ffffffffffffffffffffffffffffffffffffffff167fddf252ad1be2c89b69c2b068fc378daa952ba7f163c4a11628f55a4df523b3ef8660405161265f9190612a78565b60405180910390a38573ffffffffffffffffffffffffffffffffffffffff168a73ffffffffffffffffffffffffffffffffffffffff167fddf252ad1be2c89b69c2b068fc378daa952ba7f163c4a11628f55a4df523b3ef846040516126c49190612a78565b60405180910390a37ff8738c258eacbb175b764334c95a51c4e5efc89acca8058bb23d95de4f1c09ee836040516126fb9190612a78565b60405180910390a150505050505050505050565b6000818361271d91906130d3565b905092915050565b600081836127339190613319565b905092915050565b6000811161277e576040517f08c379a000000000000000000000000000000000000000000000000000000000815260040161277590613bb6565b60405180910390fd5b7ff8738c258eacbb175b764334c95a51c4e5efc89acca8058bb23d95de4f1c09ee816040516127ad9190612a78565b60405180910390a150565b6000604051905090565b600080fd5b600080fd5b60007fffffffff0000000000000000000000000000000000000000000000000000000082169050919050565b612801816127cc565b811461280c57600080fd5b50565b60008135905061281e816127f8565b92915050565b60006020828403121561283a576128396127c2565b5b60006128488482850161280f565b91505092915050565b60008115159050919050565b61286681612851565b82525050565b6000602082019050612881600083018461285d565b92915050565b600073ffffffffffffffffffffffffffffffffffffffff82169050919050565b60006128b282612887565b9050919050565b6128c2816128a7565b81146128cd57600080fd5b50565b6000813590506128df816128b9565b92915050565b6000819050919050565b6128f8816128e5565b811461290357600080fd5b50565b600081359050612915816128ef565b92915050565b600080600060608486031215612934576129336127c2565b5b6000612942868287016128d0565b9350506020612953868287016128d0565b925050604061296486828701612906565b9150509250925092565b600081519050919050565b600082825260208201905092915050565b60005b838110156129a857808201518184015260208101905061298d565b838111156129b7576000848401525b50505050565b6000601f19601f8301169050919050565b60006129d98261296e565b6129e38185612979565b93506129f381856020860161298a565b6129fc816129bd565b840191505092915050565b60006020820190508181036000830152612a2181846129ce565b905092915050565b60008060408385031215612a4057612a3f6127c2565b5b6000612a4e858286016128d0565b9250506020612a5f85828601612906565b9150509250929050565b612a72816128e5565b82525050565b6000602082019050612a8d6000830184612a69565b92915050565b600060ff82169050919050565b612aa981612a93565b82525050565b6000602082019050612ac46000830184612aa0565b92915050565b600080fd5b600080fd5b7f4e487b7100000000000000000000000000000000000000000000000000000000600052604160045260246000fd5b612b0c826129bd565b810181811067ffffffffffffffff82111715612b2b57612b2a612ad4565b5b80604052505050565b6000612b3e6127b8565b9050612b4a8282612b03565b919050565b600067ffffffffffffffff821115612b6a57612b69612ad4565b5b612b73826129bd565b9050602081019050919050565b82818337600083830152505050565b6000612ba2612b9d84612b4f565b612b34565b905082815260208101848484011115612bbe57612bbd612acf565b5b612bc9848285612b80565b509392505050565b600082601f830112612be657612be5612aca565b5b8135612bf6848260208601612b8f565b91505092915050565b600080600060608486031215612c1857612c176127c2565b5b6000612c26868287016128d0565b9350506020612c3786828701612906565b925050604084013567ffffffffffffffff811115612c5857612c576127c7565b5b612c6486828701612bd1565b9150509250925092565b600060208284031215612c8457612c836127c2565b5b6000612c9284828501612906565b91505092915050565b600060208284031215612cb157612cb06127c2565b5b6000612cbf848285016128d0565b91505092915050565b612cd1816128a7565b82525050565b6000602082019050612cec6000830184612cc8565b92915050565b60008060008060808587031215612d0c57612d0b6127c2565b5b6000612d1a878288016128d0565b9450506020612d2b878288016128d0565b9350506040612d3c87828801612906565b925050606085013567ffffffffffffffff811115612d5d57612d5c6127c7565b5b612d6987828801612bd1565b91505092959194509250565b60008060408385031215612d8c57612d8b6127c2565b5b6000612d9a858286016128d0565b9250506020612dab858286016128d0565b9150509250929050565b7f4e487b7100000000000000000000000000000000000000000000000000000000600052602260045260246000fd5b60006002820490506001821680612dfc57607f821691505b60208210811415612e1057612e0f612db5565b5b50919050565b7f4f776e61626c653a2063616c6c6572206973206e6f7420746865206f776e6572600082015250565b6000612e4c602083612979565b9150612e5782612e16565b602082019050919050565b60006020820190508181036000830152612e7b81612e3f565b9050919050565b7f5061757361626c653a206e6f7420706175736564000000000000000000000000600082015250565b6000612eb8601483612979565b9150612ec382612e82565b602082019050919050565b60006020820190508181036000830152612ee781612eab565b9050919050565b7f42455032304f70657261626c653a205f636865636b416e6443616c6c5472616e60008201527f7366657220726576657274730000000000000000000000000000000000000000602082015250565b6000612f4a602c83612979565b9150612f5582612eee565b604082019050919050565b60006020820190508181036000830152612f7981612f3d565b9050919050565b7f42455032304d696e7461626c653a206d696e74696e672069732066696e69736860008201527f6564000000000000000000000000000000000000000000000000000000000000602082015250565b6000612fdc602283612979565b9150612fe782612f80565b604082019050919050565b6000602082019050818103600083015261300b81612fcf565b9050919050565b7f42455032303a206275726e20616d6f756e74206578636565647320616c6c6f7760008201527f616e636500000000000000000000000000000000000000000000000000000000602082015250565b600061306e602483612979565b915061307982613012565b604082019050919050565b6000602082019050818103600083015261309d81613061565b9050919050565b7f4e487b7100000000000000000000000000000000000000000000000000000000600052601160045260246000fd5b60006130de826128e5565b91506130e9836128e5565b9250828210156130fc576130fb6130a4565b5b828203905092915050565b7f5061757361626c653a2070617573656400000000000000000000000000000000600082015250565b600061313d601083612979565b915061314882613107565b602082019050919050565b6000602082019050818103600083015261316c81613130565b9050919050565b7f42455032304f70657261626c653a205f636865636b416e6443616c6c4170707260008201527f6f76652072657665727473000000000000000000000000000000000000000000602082015250565b60006131cf602b83612979565b91506131da82613173565b604082019050919050565b600060208201905081810360008301526131fe816131c2565b9050919050565b600060408201905061321a6000830185612cc8565b6132276020830184612a69565b9392505050565b61323781612851565b811461324257600080fd5b50565b6000815190506132548161322e565b92915050565b6000602082840312156132705761326f6127c2565b5b600061327e84828501613245565b91505092915050565b7f4f776e61626c653a206e6577206f776e657220697320746865207a65726f206160008201527f6464726573730000000000000000000000000000000000000000000000000000602082015250565b60006132e3602683612979565b91506132ee82613287565b604082019050919050565b60006020820190508181036000830152613312816132d6565b9050919050565b6000613324826128e5565b915061332f836128e5565b9250827fffffffffffffffffffffffffffffffffffffffffffffffffffffffffffffffff03821115613364576133636130a4565b5b828201905092915050565b7f42455032304361707065643a2063617020657863656564656400000000000000600082015250565b60006133a5601983612979565b91506133b08261336f565b602082019050919050565b600060208201905081810360008301526133d481613398565b9050919050565b7f42455032303a206d696e7420746f20746865207a65726f206164647265737300600082015250565b6000613411601f83612979565b915061341c826133db565b602082019050919050565b6000602082019050818103600083015261344081613404565b9050919050565b600081519050919050565b600082825260208201905092915050565b600061346e82613447565b6134788185613452565b935061348881856020860161298a565b613491816129bd565b840191505092915050565b60006080820190506134b16000830187612cc8565b6134be6020830186612cc8565b6134cb6040830185612a69565b81810360608301526134dd8184613463565b905095945050505050565b6000815190506134f7816127f8565b92915050565b600060208284031215613513576135126127c2565b5b6000613521848285016134e8565b91505092915050565b7f42455032303a206275726e2066726f6d20746865207a65726f2061646472657360008201527f7300000000000000000000000000000000000000000000000000000000000000602082015250565b6000613586602183612979565b91506135918261352a565b604082019050919050565b600060208201905081810360008301526135b581613579565b9050919050565b7f42455032303a206275726e20616d6f756e7420657863656564732062616c616e60008201527f6365000000000000000000000000000000000000000000000000000000000000602082015250565b6000613618602283612979565b9150613623826135bc565b604082019050919050565b600060208201905081810360008301526136478161360b565b9050919050565b7f42455032303a20617070726f76652066726f6d20746865207a65726f2061646460008201527f7265737300000000000000000000000000000000000000000000000000000000602082015250565b60006136aa602483612979565b91506136b58261364e565b604082019050919050565b600060208201905081810360008301526136d98161369d565b9050919050565b7f42455032303a20617070726f766520746f20746865207a65726f20616464726560008201527f7373000000000000000000000000000000000000000000000000000000000000602082015250565b600061373c602283612979565b9150613747826136e0565b604082019050919050565b6000602082019050818103600083015261376b8161372f565b9050919050565b60006060820190506137876000830186612cc8565b6137946020830185612a69565b81810360408301526137a68184613463565b9050949350505050565b7f42455032303a207472616e7366657220616d6f756e742065786365656473206160008201527f6c6c6f77616e6365000000000000000000000000000000000000000000000000602082015250565b600061380c602883612979565b9150613817826137b0565b604082019050919050565b6000602082019050818103600083015261383b816137ff565b9050919050565b7f42455032303a2064656372656173656420616c6c6f77616e63652062656c6f7760008201527f207a65726f000000000000000000000000000000000000000000000000000000602082015250565b600061389e602583612979565b91506138a982613842565b604082019050919050565b600060208201905081810360008301526138cd81613891565b9050919050565b7f42455032303a207472616e736665722066726f6d20746865207a65726f20616460008201527f6472657373000000000000000000000000000000000000000000000000000000602082015250565b6000613930602583612979565b915061393b826138d4565b604082019050919050565b6000602082019050818103600083015261395f81613923565b9050919050565b7f42455032303a207472616e7366657220746f20746865207a65726f206164647260008201527f6573730000000000000000000000000000000000000000000000000000000000602082015250565b60006139c2602383612979565b91506139cd82613966565b604082019050919050565b600060208201905081810360008301526139f1816139b5565b9050919050565b7f42455032303a207472616e7366657220616d6f756e742065786365656473206260008201527f616c616e63650000000000000000000000000000000000000000000000000000602082015250565b6000613a54602683612979565b9150613a5f826139f8565b604082019050919050565b60006020820190508181036000830152613a8381613a47565b9050919050565b6000613a95826128e5565b9150613aa0836128e5565b9250817fffffffffffffffffffffffffffffffffffffffffffffffffffffffffffffffff0483118215151615613ad957613ad86130a4565b5b828202905092915050565b7f4e487b7100000000000000000000000000000000000000000000000000000000600052601260045260246000fd5b6000613b1e826128e5565b9150613b29836128e5565b925082613b3957613b38613ae4565b5b828204905092915050565b7f42455032303a207265776172647320616d6f756e74206d75737420626520677260008201527f6561746572207468616e207a65726f0000000000000000000000000000000000602082015250565b6000613ba0602f83612979565b9150613bab82613b44565b604082019050919050565b60006020820190508181036000830152613bcf81613b93565b905091905056fea2646970667358221220c230275bb18ae318cd3418fc7861ee0cd4d0bef80a8b7f8759acc64604889e0664736f6c63430008090033",
  "linkReferences": {},
  "deployedLinkReferences": {}
}